{
  "_format": "hh-sol-artifact-1",
  "contractName": "ANCTokenDynamic",
  "sourceName": "contracts/ANCTokenDynamic.sol",
  "abi": [
    {
      "inputs": [
        {
          "internalType": "address",
          "name": "_treasury",
          "type": "address"
        },
        {
          "internalType": "address",
          "name": "_maticUsdFeed",
          "type": "address"
        },
        {
          "internalType": "uint256",
          "name": "_targetUsdPrice",
          "type": "uint256"
        }
      ],
      "stateMutability": "nonpayable",
      "type": "constructor"
    },
    {
      "anonymous": false,
      "inputs": [
        {
          "indexed": true,
          "internalType": "address",
          "name": "owner",
          "type": "address"
        },
        {
          "indexed": true,
          "internalType": "address",
          "name": "spender",
          "type": "address"
        },
        {
          "indexed": false,
          "internalType": "uint256",
          "name": "value",
          "type": "uint256"
        }
      ],
      "name": "Approval",
      "type": "event"
    },
    {
      "anonymous": false,
      "inputs": [
        {
          "indexed": false,
          "internalType": "uint8",
          "name": "version",
          "type": "uint8"
        }
      ],
      "name": "Initialized",
      "type": "event"
    },
    {
      "anonymous": false,
      "inputs": [
        {
          "indexed": true,
          "internalType": "address",
          "name": "previousOwner",
          "type": "address"
        },
        {
          "indexed": true,
          "internalType": "address",
          "name": "newOwner",
          "type": "address"
        }
      ],
      "name": "OwnershipTransferred",
      "type": "event"
    },
    {
      "anonymous": false,
      "inputs": [
        {
          "indexed": false,
          "internalType": "uint256",
          "name": "newArweaveCost",
          "type": "uint256"
        },
        {
          "indexed": false,
          "internalType": "uint256",
          "name": "newChainlinkCost",
          "type": "uint256"
        }
      ],
      "name": "ServiceCostsUpdated",
      "type": "event"
    },
    {
      "anonymous": false,
      "inputs": [
        {
          "indexed": false,
          "internalType": "uint256",
          "name": "oldPrice",
          "type": "uint256"
        },
        {
          "indexed": false,
          "internalType": "uint256",
          "name": "newPrice",
          "type": "uint256"
        }
      ],
      "name": "TargetUsdPriceUpdated",
      "type": "event"
    },
    {
      "anonymous": false,
      "inputs": [
        {
          "indexed": true,
          "internalType": "address",
          "name": "user",
          "type": "address"
        },
        {
          "indexed": false,
          "internalType": "uint256",
          "name": "amount",
          "type": "uint256"
        },
        {
          "indexed": false,
          "internalType": "string",
          "name": "purpose",
          "type": "string"
        }
      ],
      "name": "TokensBurned",
      "type": "event"
    },
    {
      "anonymous": false,
      "inputs": [
        {
          "indexed": true,
          "internalType": "address",
          "name": "buyer",
          "type": "address"
        },
        {
          "indexed": false,
          "internalType": "uint256",
          "name": "maticPaid",
          "type": "uint256"
        },
        {
          "indexed": false,
          "internalType": "uint256",
          "name": "ancReceived",
          "type": "uint256"
        }
      ],
      "name": "TokensPurchased",
      "type": "event"
    },
    {
      "anonymous": false,
      "inputs": [
        {
          "indexed": true,
          "internalType": "address",
          "name": "from",
          "type": "address"
        },
        {
          "indexed": true,
          "internalType": "address",
          "name": "to",
          "type": "address"
        },
        {
          "indexed": false,
          "internalType": "uint256",
          "name": "value",
          "type": "uint256"
        }
      ],
      "name": "Transfer",
      "type": "event"
    },
    {
      "anonymous": false,
      "inputs": [
        {
          "indexed": true,
          "internalType": "address",
          "name": "to",
          "type": "address"
        },
        {
          "indexed": false,
          "internalType": "uint256",
          "name": "amount",
          "type": "uint256"
        }
      ],
      "name": "TreasuryWithdrawal",
      "type": "event"
    },
    {
      "inputs": [],
      "name": "INITIAL_SUPPLY_FOR_SALE",
      "outputs": [
        {
          "internalType": "uint256",
          "name": "",
          "type": "uint256"
        }
      ],
      "stateMutability": "view",
      "type": "function"
    },
    {
      "inputs": [],
      "name": "MAX_SUPPLY",
      "outputs": [
        {
          "internalType": "uint256",
          "name": "",
          "type": "uint256"
        }
      ],
      "stateMutability": "view",
      "type": "function"
    },
    {
      "inputs": [
        {
          "internalType": "address",
          "name": "owner",
          "type": "address"
        },
        {
          "internalType": "address",
          "name": "spender",
          "type": "address"
        }
      ],
      "name": "allowance",
      "outputs": [
        {
          "internalType": "uint256",
          "name": "",
          "type": "uint256"
        }
      ],
      "stateMutability": "view",
      "type": "function"
    },
    {
      "inputs": [
        {
          "internalType": "address",
          "name": "spender",
          "type": "address"
        },
        {
          "internalType": "uint256",
          "name": "amount",
          "type": "uint256"
        }
      ],
      "name": "approve",
      "outputs": [
        {
          "internalType": "bool",
          "name": "",
          "type": "bool"
        }
      ],
      "stateMutability": "nonpayable",
      "type": "function"
    },
    {
      "inputs": [],
      "name": "arweaveStorageCostPerMB",
      "outputs": [
        {
          "internalType": "uint256",
          "name": "",
          "type": "uint256"
        }
      ],
      "stateMutability": "view",
      "type": "function"
    },
    {
      "inputs": [
        {
          "internalType": "address",
          "name": "account",
          "type": "address"
        }
      ],
      "name": "balanceOf",
      "outputs": [
        {
          "internalType": "uint256",
          "name": "",
          "type": "uint256"
        }
      ],
      "stateMutability": "view",
      "type": "function"
    },
    {
      "inputs": [],
      "name": "chainlinkCallCost",
      "outputs": [
        {
          "internalType": "uint256",
          "name": "",
          "type": "uint256"
        }
      ],
      "stateMutability": "view",
      "type": "function"
    },
    {
      "inputs": [],
      "name": "decimals",
      "outputs": [
        {
          "internalType": "uint8",
          "name": "",
          "type": "uint8"
        }
      ],
      "stateMutability": "view",
      "type": "function"
    },
    {
      "inputs": [
        {
          "internalType": "address",
          "name": "spender",
          "type": "address"
        },
        {
          "internalType": "uint256",
          "name": "subtractedValue",
          "type": "uint256"
        }
      ],
      "name": "decreaseAllowance",
      "outputs": [
        {
          "internalType": "bool",
          "name": "",
          "type": "bool"
        }
      ],
      "stateMutability": "nonpayable",
      "type": "function"
    },
    {
      "inputs": [],
      "name": "getPricing",
      "outputs": [
        {
          "internalType": "uint256",
          "name": "priceMaticWei",
          "type": "uint256"
        },
        {
          "internalType": "uint256",
          "name": "arCost",
          "type": "uint256"
        },
        {
          "internalType": "uint256",
          "name": "clCost",
          "type": "uint256"
        }
      ],
      "stateMutability": "view",
      "type": "function"
    },
    {
      "inputs": [],
      "name": "getTokenPriceInMatic",
      "outputs": [
        {
          "internalType": "uint256",
          "name": "priceWei",
          "type": "uint256"
        }
      ],
      "stateMutability": "view",
      "type": "function"
    },
    {
      "inputs": [
        {
          "internalType": "address",
          "name": "spender",
          "type": "address"
        },
        {
          "internalType": "uint256",
          "name": "addedValue",
          "type": "uint256"
        }
      ],
      "name": "increaseAllowance",
      "outputs": [
        {
          "internalType": "bool",
          "name": "",
          "type": "bool"
        }
      ],
      "stateMutability": "nonpayable",
      "type": "function"
    },
    {
      "inputs": [],
      "name": "maticUsdFeed",
      "outputs": [
        {
          "internalType": "contract AggregatorV3Interface",
          "name": "",
          "type": "address"
        }
      ],
      "stateMutability": "view",
      "type": "function"
    },
    {
      "inputs": [],
      "name": "name",
      "outputs": [
        {
          "internalType": "string",
          "name": "",
          "type": "string"
        }
      ],
      "stateMutability": "view",
      "type": "function"
    },
    {
      "inputs": [],
      "name": "owner",
      "outputs": [
        {
          "internalType": "address",
          "name": "",
          "type": "address"
        }
      ],
      "stateMutability": "view",
      "type": "function"
    },
    {
      "inputs": [],
      "name": "payForChainlinkCall",
      "outputs": [],
      "stateMutability": "nonpayable",
      "type": "function"
    },
    {
      "inputs": [
        {
          "internalType": "uint256",
          "name": "storageMB",
          "type": "uint256"
        }
      ],
      "name": "purchaseArweaveStorage",
      "outputs": [],
      "stateMutability": "nonpayable",
      "type": "function"
    },
    {
      "inputs": [],
      "name": "purchaseTokens",
      "outputs": [],
      "stateMutability": "payable",
      "type": "function"
    },
    {
      "inputs": [],
      "name": "renounceOwnership",
      "outputs": [],
      "stateMutability": "nonpayable",
      "type": "function"
    },
    {
      "inputs": [],
      "name": "symbol",
      "outputs": [
        {
          "internalType": "string",
          "name": "",
          "type": "string"
        }
      ],
      "stateMutability": "view",
      "type": "function"
    },
    {
      "inputs": [],
      "name": "targetUsdPrice",
      "outputs": [
        {
          "internalType": "uint256",
          "name": "",
          "type": "uint256"
        }
      ],
      "stateMutability": "view",
      "type": "function"
    },
    {
      "inputs": [],
      "name": "totalSupply",
      "outputs": [
        {
          "internalType": "uint256",
          "name": "",
          "type": "uint256"
        }
      ],
      "stateMutability": "view",
      "type": "function"
    },
    {
      "inputs": [
        {
          "internalType": "address",
          "name": "to",
          "type": "address"
        },
        {
          "internalType": "uint256",
          "name": "amount",
          "type": "uint256"
        }
      ],
      "name": "transfer",
      "outputs": [
        {
          "internalType": "bool",
          "name": "",
          "type": "bool"
        }
      ],
      "stateMutability": "nonpayable",
      "type": "function"
    },
    {
      "inputs": [
        {
          "internalType": "address",
          "name": "from",
          "type": "address"
        },
        {
          "internalType": "address",
          "name": "to",
          "type": "address"
        },
        {
          "internalType": "uint256",
          "name": "amount",
          "type": "uint256"
        }
      ],
      "name": "transferFrom",
      "outputs": [
        {
          "internalType": "bool",
          "name": "",
          "type": "bool"
        }
      ],
      "stateMutability": "nonpayable",
      "type": "function"
    },
    {
      "inputs": [
        {
          "internalType": "address",
          "name": "newOwner",
          "type": "address"
        }
      ],
      "name": "transferOwnership",
      "outputs": [],
      "stateMutability": "nonpayable",
      "type": "function"
    },
    {
      "inputs": [],
      "name": "treasury",
      "outputs": [
        {
          "internalType": "address",
          "name": "",
          "type": "address"
        }
      ],
      "stateMutability": "view",
      "type": "function"
    },
    {
      "inputs": [],
      "name": "treasuryBalance",
      "outputs": [
        {
          "internalType": "uint256",
          "name": "",
          "type": "uint256"
        }
      ],
      "stateMutability": "view",
      "type": "function"
    },
    {
      "inputs": [
        {
          "internalType": "uint256",
          "name": "newArCost",
          "type": "uint256"
        },
        {
          "internalType": "uint256",
          "name": "newClCost",
          "type": "uint256"
        }
      ],
      "name": "updateServiceCosts",
      "outputs": [],
      "stateMutability": "nonpayable",
      "type": "function"
    },
    {
      "inputs": [
        {
          "internalType": "uint256",
          "name": "newUsdPrice",
          "type": "uint256"
        }
      ],
      "name": "updateTargetUsdPrice",
      "outputs": [],
      "stateMutability": "nonpayable",
      "type": "function"
    },
    {
      "inputs": [
        {
          "internalType": "uint256",
          "name": "amount",
          "type": "uint256"
        }
      ],
      "name": "withdrawTreasury",
      "outputs": [],
      "stateMutability": "nonpayable",
      "type": "function"
    },
    {
      "inputs": [
        {
          "internalType": "uint256",
          "name": "amount",
          "type": "uint256"
        }
      ],
      "name": "withdrawUnsold",
      "outputs": [],
      "stateMutability": "nonpayable",
      "type": "function"
    }
  ],
  "bytecode": "0x60a0604052678ac7230489e80000603855670de0b6b3a76400006039553480156200002957600080fd5b506040516200391d3803806200391d83398181016040528101906200004f91906200058c565b6040518060400160405280600c81526020017f416e636573747279436f696e00000000000000000000000000000000000000008152506040518060400160405280600381526020017f414e4300000000000000000000000000000000000000000000000000000000008152508160039081620000cc919062000858565b508060049081620000de919062000858565b50505062000101620000f5620002a260201b60201c565b620002aa60201b60201c565b600073ffffffffffffffffffffffffffffffffffffffff168373ffffffffffffffffffffffffffffffffffffffff160362000173576040517f08c379a00000000000000000000000000000000000000000000000000000000081526004016200016a90620009a0565b60405180910390fd5b600073ffffffffffffffffffffffffffffffffffffffff168273ffffffffffffffffffffffffffffffffffffffff1603620001e5576040517f08c379a0000000000000000000000000000000000000000000000000000000008152600401620001dc9062000a12565b60405180910390fd5b82603b60006101000a81548173ffffffffffffffffffffffffffffffffffffffff021916908373ffffffffffffffffffffffffffffffffffffffff1602179055508173ffffffffffffffffffffffffffffffffffffffff1660808173ffffffffffffffffffffffffffffffffffffffff168152505080603a819055506200027d3069d3c21bcecceda10000006200037060201b60201c565b620002993369021e19e0c9bab24000006200037060201b60201c565b50505062000b3e565b600033905090565b6000600560009054906101000a900473ffffffffffffffffffffffffffffffffffffffff16905081600560006101000a81548173ffffffffffffffffffffffffffffffffffffffff021916908373ffffffffffffffffffffffffffffffffffffffff1602179055508173ffffffffffffffffffffffffffffffffffffffff168173ffffffffffffffffffffffffffffffffffffffff167f8be0079c531659141344cd1fd0a4f28419497f9722a3daafe3b4186f6b6457e060405160405180910390a35050565b600073ffffffffffffffffffffffffffffffffffffffff168273ffffffffffffffffffffffffffffffffffffffff1603620003e2576040517f08c379a0000000000000000000000000000000000000000000000000000000008152600401620003d99062000a84565b60405180910390fd5b620003f660008383620004dd60201b60201c565b80600260008282546200040a919062000ad5565b92505081905550806000808473ffffffffffffffffffffffffffffffffffffffff1673ffffffffffffffffffffffffffffffffffffffff168152602001908152602001600020600082825401925050819055508173ffffffffffffffffffffffffffffffffffffffff16600073ffffffffffffffffffffffffffffffffffffffff167fddf252ad1be2c89b69c2b068fc378daa952ba7f163c4a11628f55a4df523b3ef83604051620004bd919062000b21565b60405180910390a3620004d960008383620004e260201b60201c565b5050565b505050565b505050565b600080fd5b600073ffffffffffffffffffffffffffffffffffffffff82169050919050565b60006200051982620004ec565b9050919050565b6200052b816200050c565b81146200053757600080fd5b50565b6000815190506200054b8162000520565b92915050565b6000819050919050565b620005668162000551565b81146200057257600080fd5b50565b60008151905062000586816200055b565b92915050565b600080600060608486031215620005a857620005a7620004e7565b5b6000620005b8868287016200053a565b9350506020620005cb868287016200053a565b9250506040620005de8682870162000575565b9150509250925092565b600081519050919050565b7f4e487b7100000000000000000000000000000000000000000000000000000000600052604160045260246000fd5b7f4e487b7100000000000000000000000000000000000000000000000000000000600052602260045260246000fd5b600060028204905060018216806200066a57607f821691505b60208210810362000680576200067f62000622565b5b50919050565b60008190508160005260206000209050919050565b60006020601f8301049050919050565b600082821b905092915050565b600060088302620006ea7fffffffffffffffffffffffffffffffffffffffffffffffffffffffffffffffff82620006ab565b620006f68683620006ab565b95508019841693508086168417925050509392505050565b6000819050919050565b600062000739620007336200072d8462000551565b6200070e565b62000551565b9050919050565b6000819050919050565b620007558362000718565b6200076d620007648262000740565b848454620006b8565b825550505050565b600090565b6200078462000775565b620007918184846200074a565b505050565b5b81811015620007b957620007ad6000826200077a565b60018101905062000797565b5050565b601f8211156200080857620007d28162000686565b620007dd846200069b565b81016020851015620007ed578190505b62000805620007fc856200069b565b83018262000796565b50505b505050565b600082821c905092915050565b60006200082d600019846008026200080d565b1980831691505092915050565b60006200084883836200081a565b9150826002028217905092915050565b6200086382620005e8565b67ffffffffffffffff8111156200087f576200087e620005f3565b5b6200088b825462000651565b62000898828285620007bd565b600060209050601f831160018114620008d05760008415620008bb578287015190505b620008c785826200083a565b86555062000937565b601f198416620008e08662000686565b60005b828110156200090a57848901518255600182019150602085019450602081019050620008e3565b868310156200092a578489015162000926601f8916826200081a565b8355505b6001600288020188555050505b505050505050565b600082825260208201905092915050565b7f5472656173757279207a65726f00000000000000000000000000000000000000600082015250565b600062000988600d836200093f565b9150620009958262000950565b602082019050919050565b60006020820190508181036000830152620009bb8162000979565b9050919050565b7f46656564207a65726f0000000000000000000000000000000000000000000000600082015250565b6000620009fa6009836200093f565b915062000a0782620009c2565b602082019050919050565b6000602082019050818103600083015262000a2d81620009eb565b9050919050565b7f45524332303a206d696e7420746f20746865207a65726f206164647265737300600082015250565b600062000a6c601f836200093f565b915062000a798262000a34565b602082019050919050565b6000602082019050818103600083015262000a9f8162000a5d565b9050919050565b7f4e487b7100000000000000000000000000000000000000000000000000000000600052601160045260246000fd5b600062000ae28262000551565b915062000aef8362000551565b925082820190508082111562000b0a5762000b0962000aa6565b5b92915050565b62000b1b8162000551565b82525050565b600060208201905062000b38600083018462000b10565b92915050565b608051612dbc62000b6160003960008181610d680152610e690152612dbc6000f3fe6080604052600436106101d85760003560e01c806370a0823111610102578063aaac11ba11610095578063f0339fc311610064578063f0339fc3146106a9578063f2fde38b146106d4578063f8b6069d146106fd578063faf1af4f14610714576101d8565b8063aaac11ba146105ed578063ae4ff9dc14610618578063b3a7a83e14610641578063dd62ed3e1461066c576101d8565b80638da5cb5b116100d15780638da5cb5b1461051d57806395d89b4114610548578063a457c2d714610573578063a9059cbb146105b0576101d8565b806370a0823114610475578063715018a6146104b257806374b7c68f146104c957806387b6d620146104f2576101d8565b8063313dab201161017a578063395093511161014957806339509351146103b7578063441c9b2a146103f457806361d027b31461041f57806361d0c4821461044a576101d8565b8063313dab201461032a5780633290ce291461035557806332cb6b0c1461035f57806338b4e3381461038a576101d8565b806318160ddd116101b657806318160ddd1461026e5780631dbec34a1461029957806323b872dd146102c2578063313ce567146102ff576101d8565b806306fdde03146101dd578063095ea7b31461020857806311f1fc9914610245575b600080fd5b3480156101e957600080fd5b506101f261073d565b6040516101ff9190611bea565b60405180910390f35b34801561021457600080fd5b5061022f600480360381019061022a9190611ca5565b6107cf565b60405161023c9190611d00565b60405180910390f35b34801561025157600080fd5b5061026c60048036038101906102679190611d1b565b6107f2565b005b34801561027a57600080fd5b5061028361097f565b6040516102909190611d57565b60405180910390f35b3480156102a557600080fd5b506102c060048036038101906102bb9190611d1b565b610989565b005b3480156102ce57600080fd5b506102e960048036038101906102e49190611d72565b610a1f565b6040516102f69190611d00565b60405180910390f35b34801561030b57600080fd5b50610314610a4e565b6040516103219190611de1565b60405180910390f35b34801561033657600080fd5b5061033f610a57565b60405161034c9190611d57565b60405180910390f35b61035d610a98565b005b34801561036b57600080fd5b50610374610cd6565b6040516103819190611d57565b60405180910390f35b34801561039657600080fd5b5061039f610ce5565b6040516103ae93929190611dfc565b60405180910390f35b3480156103c357600080fd5b506103de60048036038101906103d99190611ca5565b610d03565b6040516103eb9190611d00565b60405180910390f35b34801561040057600080fd5b50610409610d3a565b6040516104169190611d57565b60405180910390f35b34801561042b57600080fd5b50610434610d40565b6040516104419190611e42565b60405180910390f35b34801561045657600080fd5b5061045f610d66565b60405161046c9190611ebc565b60405180910390f35b34801561048157600080fd5b5061049c60048036038101906104979190611ed7565b610d8a565b6040516104a99190611d57565b60405180910390f35b3480156104be57600080fd5b506104c7610dd2565b005b3480156104d557600080fd5b506104f060048036038101906104eb9190611d1b565b610de6565b005b3480156104fe57600080fd5b50610507610e64565b6040516105149190611d57565b60405180910390f35b34801561052957600080fd5b50610532610f6c565b60405161053f9190611e42565b60405180910390f35b34801561055457600080fd5b5061055d610f96565b60405161056a9190611bea565b60405180910390f35b34801561057f57600080fd5b5061059a60048036038101906105959190611ca5565b611028565b6040516105a79190611d00565b60405180910390f35b3480156105bc57600080fd5b506105d760048036038101906105d29190611ca5565b61109f565b6040516105e49190611d00565b60405180910390f35b3480156105f957600080fd5b506106026110c2565b60405161060f9190611d57565b60405180910390f35b34801561062457600080fd5b5061063f600480360381019061063a9190611d1b565b6110d0565b005b34801561064d57600080fd5b506106566110ed565b6040516106639190611d57565b60405180910390f35b34801561067857600080fd5b50610693600480360381019061068e9190611f04565b6110f3565b6040516106a09190611d57565b60405180910390f35b3480156106b557600080fd5b506106be61117a565b6040516106cb9190611d57565b60405180910390f35b3480156106e057600080fd5b506106fb60048036038101906106f69190611ed7565b611180565b005b34801561070957600080fd5b50610712611203565b005b34801561072057600080fd5b5061073b60048036038101906107369190611f44565b611271565b005b60606003805461074c90611fb3565b80601f016020809104026020016040519081016040528092919081815260200182805461077890611fb3565b80156107c55780601f1061079a576101008083540402835291602001916107c5565b820191906000526020600020905b8154815290600101906020018083116107a857829003601f168201915b5050505050905090565b6000806107da611313565b90506107e781858561131b565b600191505092915050565b6107fa6114e4565b4781111561083d576040517f08c379a000000000000000000000000000000000000000000000000000000000815260040161083490612030565b60405180910390fd5b6000603b60009054906101000a900473ffffffffffffffffffffffffffffffffffffffff1673ffffffffffffffffffffffffffffffffffffffff168260405161088590612081565b60006040518083038185875af1925050503d80600081146108c2576040519150601f19603f3d011682016040523d82523d6000602084013e6108c7565b606091505b505090508061090b576040517f08c379a0000000000000000000000000000000000000000000000000000000008152600401610902906120e2565b60405180910390fd5b603b60009054906101000a900473ffffffffffffffffffffffffffffffffffffffff1673ffffffffffffffffffffffffffffffffffffffff167f233c84dc0c19fbf51f9fa92214ffd8a59f512e0098bff5827455d02e401221c0836040516109739190611d57565b60405180910390a25050565b6000600254905090565b6109916114e4565b600081116109d4576040517f08c379a00000000000000000000000000000000000000000000000000000000081526004016109cb9061214e565b60405180910390fd5b6000603a54905081603a819055507fac94dad39fbfea7675cb2e551917290eab1863fabcfdb3f89c6557cde74f390f8183604051610a1392919061216e565b60405180910390a15050565b600080610a2a611313565b9050610a37858285611562565b610a428585856115ee565b60019150509392505050565b60006012905090565b6000603b60009054906101000a900473ffffffffffffffffffffffffffffffffffffffff1673ffffffffffffffffffffffffffffffffffffffff1631905090565b610aa0611864565b60003411610ae3576040517f08c379a0000000000000000000000000000000000000000000000000000000008152600401610ada906121e3565b60405180910390fd5b6000610aed610e64565b9050600081670de0b6b3a764000034610b069190612232565b610b1091906122a3565b905060008111610b55576040517f08c379a0000000000000000000000000000000000000000000000000000000008152600401610b4c90612320565b60405180910390fd5b80610b5f30610d8a565b1015610ba0576040517f08c379a0000000000000000000000000000000000000000000000000000000008152600401610b979061238c565b60405180910390fd5b610bab3033836115ee565b3373ffffffffffffffffffffffffffffffffffffffff167f8fafebcaf9d154343dad25669bfa277f4fbacd7ac6b0c4fed522580e040a0f333483604051610bf392919061216e565b60405180910390a26000603b60009054906101000a900473ffffffffffffffffffffffffffffffffffffffff1673ffffffffffffffffffffffffffffffffffffffff1634604051610c4390612081565b60006040518083038185875af1925050503d8060008114610c80576040519150601f19603f3d011682016040523d82523d6000602084013e610c85565b606091505b5050905080610cc9576040517f08c379a0000000000000000000000000000000000000000000000000000000008152600401610cc0906123f8565b60405180910390fd5b505050610cd46118b3565b565b6a084595161401484a00000081565b6000806000610cf2610e64565b925060385491506039549050909192565b600080610d0e611313565b9050610d2f818585610d2085896110f3565b610d2a9190612418565b61131b565b600191505092915050565b603a5481565b603b60009054906101000a900473ffffffffffffffffffffffffffffffffffffffff1681565b7f000000000000000000000000000000000000000000000000000000000000000081565b60008060008373ffffffffffffffffffffffffffffffffffffffff1673ffffffffffffffffffffffffffffffffffffffff168152602001908152602001600020549050919050565b610dda6114e4565b610de460006118bd565b565b610dee611864565b600060385482610dfe9190612232565b9050610e0a3382611983565b3373ffffffffffffffffffffffffffffffffffffffff167ffad31924d655455395c87544c8aa1ffdb5a7505a22a3c2e03f28003b6556a75f82604051610e509190612498565b60405180910390a250610e616118b3565b50565b6000807f000000000000000000000000000000000000000000000000000000000000000073ffffffffffffffffffffffffffffffffffffffff1663feaf968c6040518163ffffffff1660e01b815260040160a060405180830381865afa158015610ed2573d6000803e3d6000fd5b505050506040513d601f19601f82011682018060405250810190610ef69190612553565b50505091505060008113610f3f576040517f08c379a0000000000000000000000000000000000000000000000000000000008152600401610f369061261a565b60405180910390fd5b600081905080670de0b6b3a7640000603a54610f5b9190612232565b610f6591906122a3565b9250505090565b6000600560009054906101000a900473ffffffffffffffffffffffffffffffffffffffff16905090565b606060048054610fa590611fb3565b80601f0160208091040260200160405190810160405280929190818152602001828054610fd190611fb3565b801561101e5780601f10610ff35761010080835404028352916020019161101e565b820191906000526020600020905b81548152906001019060200180831161100157829003601f168201915b5050505050905090565b600080611033611313565b9050600061104182866110f3565b905083811015611086576040517f08c379a000000000000000000000000000000000000000000000000000000000815260040161107d906126ac565b60405180910390fd5b611093828686840361131b565b60019250505092915050565b6000806110aa611313565b90506110b78185856115ee565b600191505092915050565b69d3c21bcecceda100000081565b6110d86114e4565b6110ea306110e4610f6c565b836115ee565b50565b60385481565b6000600160008473ffffffffffffffffffffffffffffffffffffffff1673ffffffffffffffffffffffffffffffffffffffff16815260200190815260200160002060008373ffffffffffffffffffffffffffffffffffffffff1673ffffffffffffffffffffffffffffffffffffffff16815260200190815260200160002054905092915050565b60395481565b6111886114e4565b600073ffffffffffffffffffffffffffffffffffffffff168173ffffffffffffffffffffffffffffffffffffffff16036111f7576040517f08c379a00000000000000000000000000000000000000000000000000000000081526004016111ee9061273e565b60405180910390fd5b611200816118bd565b50565b61120b611864565b61121733603954611983565b3373ffffffffffffffffffffffffffffffffffffffff167ffad31924d655455395c87544c8aa1ffdb5a7505a22a3c2e03f28003b6556a75f60395460405161125f91906127aa565b60405180910390a261126f6118b3565b565b6112796114e4565b6000821180156112895750600081115b6112c8576040517f08c379a00000000000000000000000000000000000000000000000000000000081526004016112bf90612824565b60405180910390fd5b81603881905550806039819055507fb689d861a4979555eb0cdde739253715d50dcff8e92a500cb0de84d8133db392828260405161130792919061216e565b60405180910390a15050565b600033905090565b600073ffffffffffffffffffffffffffffffffffffffff168373ffffffffffffffffffffffffffffffffffffffff160361138a576040517f08c379a0000000000000000000000000000000000000000000000000000000008152600401611381906128b6565b60405180910390fd5b600073ffffffffffffffffffffffffffffffffffffffff168273ffffffffffffffffffffffffffffffffffffffff16036113f9576040517f08c379a00000000000000000000000000000000000000000000000000000000081526004016113f090612948565b60405180910390fd5b80600160008573ffffffffffffffffffffffffffffffffffffffff1673ffffffffffffffffffffffffffffffffffffffff16815260200190815260200160002060008473ffffffffffffffffffffffffffffffffffffffff1673ffffffffffffffffffffffffffffffffffffffff168152602001908152602001600020819055508173ffffffffffffffffffffffffffffffffffffffff168373ffffffffffffffffffffffffffffffffffffffff167f8c5be1e5ebec7d5bd14f71427d1e84f3dd0314c0f7b2291e5b200ac8c7c3b925836040516114d79190611d57565b60405180910390a3505050565b6114ec611313565b73ffffffffffffffffffffffffffffffffffffffff1661150a610f6c565b73ffffffffffffffffffffffffffffffffffffffff1614611560576040517f08c379a0000000000000000000000000000000000000000000000000000000008152600401611557906129b4565b60405180910390fd5b565b600061156e84846110f3565b90507fffffffffffffffffffffffffffffffffffffffffffffffffffffffffffffffff81146115e857818110156115da576040517f08c379a00000000000000000000000000000000000000000000000000000000081526004016115d190612a20565b60405180910390fd5b6115e7848484840361131b565b5b50505050565b600073ffffffffffffffffffffffffffffffffffffffff168373ffffffffffffffffffffffffffffffffffffffff160361165d576040517f08c379a000000000000000000000000000000000000000000000000000000000815260040161165490612ab2565b60405180910390fd5b600073ffffffffffffffffffffffffffffffffffffffff168273ffffffffffffffffffffffffffffffffffffffff16036116cc576040517f08c379a00000000000000000000000000000000000000000000000000000000081526004016116c390612b44565b60405180910390fd5b6116d7838383611b50565b60008060008573ffffffffffffffffffffffffffffffffffffffff1673ffffffffffffffffffffffffffffffffffffffff1681526020019081526020016000205490508181101561175d576040517f08c379a000000000000000000000000000000000000000000000000000000000815260040161175490612bd6565b60405180910390fd5b8181036000808673ffffffffffffffffffffffffffffffffffffffff1673ffffffffffffffffffffffffffffffffffffffff16815260200190815260200160002081905550816000808573ffffffffffffffffffffffffffffffffffffffff1673ffffffffffffffffffffffffffffffffffffffff168152602001908152602001600020600082825401925050819055508273ffffffffffffffffffffffffffffffffffffffff168473ffffffffffffffffffffffffffffffffffffffff167fddf252ad1be2c89b69c2b068fc378daa952ba7f163c4a11628f55a4df523b3ef8460405161184b9190611d57565b60405180910390a361185e848484611b55565b50505050565b6002600654036118a9576040517f08c379a00000000000000000000000000000000000000000000000000000000081526004016118a090612c42565b60405180910390fd5b6002600681905550565b6001600681905550565b6000600560009054906101000a900473ffffffffffffffffffffffffffffffffffffffff16905081600560006101000a81548173ffffffffffffffffffffffffffffffffffffffff021916908373ffffffffffffffffffffffffffffffffffffffff1602179055508173ffffffffffffffffffffffffffffffffffffffff168173ffffffffffffffffffffffffffffffffffffffff167f8be0079c531659141344cd1fd0a4f28419497f9722a3daafe3b4186f6b6457e060405160405180910390a35050565b600073ffffffffffffffffffffffffffffffffffffffff168273ffffffffffffffffffffffffffffffffffffffff16036119f2576040517f08c379a00000000000000000000000000000000000000000000000000000000081526004016119e990612cd4565b60405180910390fd5b6119fe82600083611b50565b60008060008473ffffffffffffffffffffffffffffffffffffffff1673ffffffffffffffffffffffffffffffffffffffff16815260200190815260200160002054905081811015611a84576040517f08c379a0000000000000000000000000000000000000000000000000000000008152600401611a7b90612d66565b60405180910390fd5b8181036000808573ffffffffffffffffffffffffffffffffffffffff1673ffffffffffffffffffffffffffffffffffffffff1681526020019081526020016000208190555081600260008282540392505081905550600073ffffffffffffffffffffffffffffffffffffffff168373ffffffffffffffffffffffffffffffffffffffff167fddf252ad1be2c89b69c2b068fc378daa952ba7f163c4a11628f55a4df523b3ef84604051611b379190611d57565b60405180910390a3611b4b83600084611b55565b505050565b505050565b505050565b600081519050919050565b600082825260208201905092915050565b60005b83811015611b94578082015181840152602081019050611b79565b60008484015250505050565b6000601f19601f8301169050919050565b6000611bbc82611b5a565b611bc68185611b65565b9350611bd6818560208601611b76565b611bdf81611ba0565b840191505092915050565b60006020820190508181036000830152611c048184611bb1565b905092915050565b600080fd5b600073ffffffffffffffffffffffffffffffffffffffff82169050919050565b6000611c3c82611c11565b9050919050565b611c4c81611c31565b8114611c5757600080fd5b50565b600081359050611c6981611c43565b92915050565b6000819050919050565b611c8281611c6f565b8114611c8d57600080fd5b50565b600081359050611c9f81611c79565b92915050565b60008060408385031215611cbc57611cbb611c0c565b5b6000611cca85828601611c5a565b9250506020611cdb85828601611c90565b9150509250929050565b60008115159050919050565b611cfa81611ce5565b82525050565b6000602082019050611d156000830184611cf1565b92915050565b600060208284031215611d3157611d30611c0c565b5b6000611d3f84828501611c90565b91505092915050565b611d5181611c6f565b82525050565b6000602082019050611d6c6000830184611d48565b92915050565b600080600060608486031215611d8b57611d8a611c0c565b5b6000611d9986828701611c5a565b9350506020611daa86828701611c5a565b9250506040611dbb86828701611c90565b9150509250925092565b600060ff82169050919050565b611ddb81611dc5565b82525050565b6000602082019050611df66000830184611dd2565b92915050565b6000606082019050611e116000830186611d48565b611e1e6020830185611d48565b611e2b6040830184611d48565b949350505050565b611e3c81611c31565b82525050565b6000602082019050611e576000830184611e33565b92915050565b6000819050919050565b6000611e82611e7d611e7884611c11565b611e5d565b611c11565b9050919050565b6000611e9482611e67565b9050919050565b6000611ea682611e89565b9050919050565b611eb681611e9b565b82525050565b6000602082019050611ed16000830184611ead565b92915050565b600060208284031215611eed57611eec611c0c565b5b6000611efb84828501611c5a565b91505092915050565b60008060408385031215611f1b57611f1a611c0c565b5b6000611f2985828601611c5a565b9250506020611f3a85828601611c5a565b9150509250929050565b60008060408385031215611f5b57611f5a611c0c565b5b6000611f6985828601611c90565b9250506020611f7a85828601611c90565b9150509250929050565b7f4e487b7100000000000000000000000000000000000000000000000000000000600052602260045260246000fd5b60006002820490506001821680611fcb57607f821691505b602082108103611fde57611fdd611f84565b5b50919050565b7f546f6f206d756368000000000000000000000000000000000000000000000000600082015250565b600061201a600883611b65565b915061202582611fe4565b602082019050919050565b600060208201905081810360008301526120498161200d565b9050919050565b600081905092915050565b50565b600061206b600083612050565b91506120768261205b565b600082019050919050565b600061208c8261205e565b9150819050919050565b7f5769746864726177616c206661696c6564000000000000000000000000000000600082015250565b60006120cc601183611b65565b91506120d782612096565b602082019050919050565b600060208201905081810360008301526120fb816120bf565b9050919050565b7f5a65726f20707269636500000000000000000000000000000000000000000000600082015250565b6000612138600a83611b65565b915061214382612102565b602082019050919050565b600060208201905081810360008301526121678161212b565b9050919050565b60006040820190506121836000830185611d48565b6121906020830184611d48565b9392505050565b7f4e6f204d415449432073656e7400000000000000000000000000000000000000600082015250565b60006121cd600d83611b65565b91506121d882612197565b602082019050919050565b600060208201905081810360008301526121fc816121c0565b9050919050565b7f4e487b7100000000000000000000000000000000000000000000000000000000600052601160045260246000fd5b600061223d82611c6f565b915061224883611c6f565b925082820261225681611c6f565b9150828204841483151761226d5761226c612203565b5b5092915050565b7f4e487b7100000000000000000000000000000000000000000000000000000000600052601260045260246000fd5b60006122ae82611c6f565b91506122b983611c6f565b9250826122c9576122c8612274565b5b828204905092915050565b7f496e73756666696369656e74204d4154494320666f72203120414e4300000000600082015250565b600061230a601c83611b65565b9150612315826122d4565b602082019050919050565b60006020820190508181036000830152612339816122fd565b9050919050565b7f414e4320736f6c64206f7574202d20616464206c697175696469747900000000600082015250565b6000612376601c83611b65565b915061238182612340565b602082019050919050565b600060208201905081810360008301526123a581612369565b9050919050565b7f5472656173757279207472616e73666572206661696c65640000000000000000600082015250565b60006123e2601883611b65565b91506123ed826123ac565b602082019050919050565b60006020820190508181036000830152612411816123d5565b9050919050565b600061242382611c6f565b915061242e83611c6f565b925082820190508082111561244657612445612203565b5b92915050565b7f6172776561766500000000000000000000000000000000000000000000000000600082015250565b6000612482600783611b65565b915061248d8261244c565b602082019050919050565b60006040820190506124ad6000830184611d48565b81810360208301526124be81612475565b905092915050565b600069ffffffffffffffffffff82169050919050565b6124e5816124c6565b81146124f057600080fd5b50565b600081519050612502816124dc565b92915050565b6000819050919050565b61251b81612508565b811461252657600080fd5b50565b60008151905061253881612512565b92915050565b60008151905061254d81611c79565b92915050565b600080600080600060a0868803121561256f5761256e611c0c565b5b600061257d888289016124f3565b955050602061258e88828901612529565b945050604061259f8882890161253e565b93505060606125b08882890161253e565b92505060806125c1888289016124f3565b9150509295509295909350565b7f496e76616c696420707269636500000000000000000000000000000000000000600082015250565b6000612604600d83611b65565b915061260f826125ce565b602082019050919050565b60006020820190508181036000830152612633816125f7565b9050919050565b7f45524332303a2064656372656173656420616c6c6f77616e63652062656c6f7760008201527f207a65726f000000000000000000000000000000000000000000000000000000602082015250565b6000612696602583611b65565b91506126a18261263a565b604082019050919050565b600060208201905081810360008301526126c581612689565b9050919050565b7f4f776e61626c653a206e6577206f776e657220697320746865207a65726f206160008201527f6464726573730000000000000000000000000000000000000000000000000000602082015250565b6000612728602683611b65565b9150612733826126cc565b604082019050919050565b600060208201905081810360008301526127578161271b565b9050919050565b7f636861696e6c696e6b0000000000000000000000000000000000000000000000600082015250565b6000612794600983611b65565b915061279f8261275e565b602082019050919050565b60006040820190506127bf6000830184611d48565b81810360208301526127d081612787565b905092915050565b7f5a65726f20636f73740000000000000000000000000000000000000000000000600082015250565b600061280e600983611b65565b9150612819826127d8565b602082019050919050565b6000602082019050818103600083015261283d81612801565b9050919050565b7f45524332303a20617070726f76652066726f6d20746865207a65726f2061646460008201527f7265737300000000000000000000000000000000000000000000000000000000602082015250565b60006128a0602483611b65565b91506128ab82612844565b604082019050919050565b600060208201905081810360008301526128cf81612893565b9050919050565b7f45524332303a20617070726f766520746f20746865207a65726f20616464726560008201527f7373000000000000000000000000000000000000000000000000000000000000602082015250565b6000612932602283611b65565b915061293d826128d6565b604082019050919050565b6000602082019050818103600083015261296181612925565b9050919050565b7f4f776e61626c653a2063616c6c6572206973206e6f7420746865206f776e6572600082015250565b600061299e602083611b65565b91506129a982612968565b602082019050919050565b600060208201905081810360008301526129cd81612991565b9050919050565b7f45524332303a20696e73756666696369656e7420616c6c6f77616e6365000000600082015250565b6000612a0a601d83611b65565b9150612a15826129d4565b602082019050919050565b60006020820190508181036000830152612a39816129fd565b9050919050565b7f45524332303a207472616e736665722066726f6d20746865207a65726f20616460008201527f6472657373000000000000000000000000000000000000000000000000000000602082015250565b6000612a9c602583611b65565b9150612aa782612a40565b604082019050919050565b60006020820190508181036000830152612acb81612a8f565b9050919050565b7f45524332303a207472616e7366657220746f20746865207a65726f206164647260008201527f6573730000000000000000000000000000000000000000000000000000000000602082015250565b6000612b2e602383611b65565b9150612b3982612ad2565b604082019050919050565b60006020820190508181036000830152612b5d81612b21565b9050919050565b7f45524332303a207472616e7366657220616d6f756e742065786365656473206260008201527f616c616e63650000000000000000000000000000000000000000000000000000602082015250565b6000612bc0602683611b65565b9150612bcb82612b64565b604082019050919050565b60006020820190508181036000830152612bef81612bb3565b9050919050565b7f5265656e7472616e637947756172643a207265656e7472616e742063616c6c00600082015250565b6000612c2c601f83611b65565b9150612c3782612bf6565b602082019050919050565b60006020820190508181036000830152612c5b81612c1f565b9050919050565b7f45524332303a206275726e2066726f6d20746865207a65726f2061646472657360008201527f7300000000000000000000000000000000000000000000000000000000000000602082015250565b6000612cbe602183611b65565b9150612cc982612c62565b604082019050919050565b60006020820190508181036000830152612ced81612cb1565b9050919050565b7f45524332303a206275726e20616d6f756e7420657863656564732062616c616e60008201527f6365000000000000000000000000000000000000000000000000000000000000602082015250565b6000612d50602283611b65565b9150612d5b82612cf4565b604082019050919050565b60006020820190508181036000830152612d7f81612d43565b905091905056fea26469706673582212203374bb34ac9b551aa38ea8d4528e60d8b3d78b8672a132b00d1e2540ec2a87ce64736f6c63430008140033",
  "linkReferences": {},
  "deployedLinkReferences": {}
}