{
  "_format": "hh-sol-artifact-1",
  "contractName": "StorageManager",
  "sourceName": "contracts/StorageManager.sol",
  "abi": [
    {
      "anonymous": false,
      "inputs": [
        {
          "indexed": true,
          "internalType": "address",
          "name": "user",
          "type": "address"
        },
        {
          "indexed": false,
          "internalType": "uint256",
          "name": "amount",
          "type": "uint256"
        },
        {
          "indexed": false,
          "internalType": "string",
          "name": "purpose",
          "type": "string"
        }
      ],
      "name": "ANCSpent",
      "type": "event"
    },
    {
      "anonymous": false,
      "inputs": [
        {
          "indexed": true,
          "internalType": "address",
          "name": "user",
          "type": "address"
        },
        {
          "indexed": true,
          "internalType": "bytes32",
          "name": "fileHash",
          "type": "bytes32"
        },
        {
          "indexed": false,
          "internalType": "uint256",
          "name": "amount",
          "type": "uint256"
        }
      ],
      "name": "FileStoragePaid",
      "type": "event"
    },
    {
      "anonymous": false,
      "inputs": [
        {
          "indexed": false,
          "internalType": "uint8",
          "name": "version",
          "type": "uint8"
        }
      ],
      "name": "Initialized",
      "type": "event"
    },
    {
      "anonymous": false,
      "inputs": [
        {
          "indexed": true,
          "internalType": "address",
          "name": "previousOwner",
          "type": "address"
        },
        {
          "indexed": true,
          "internalType": "address",
          "name": "newOwner",
          "type": "address"
        }
      ],
      "name": "OwnershipTransferred",
      "type": "event"
    },
    {
      "inputs": [],
      "name": "ancToken",
      "outputs": [
        {
          "internalType": "contract ERC20BurnableUpgradeable",
          "name": "",
          "type": "address"
        }
      ],
      "stateMutability": "view",
      "type": "function"
    },
    {
      "inputs": [],
      "name": "getTotalANCSpent",
      "outputs": [
        {
          "internalType": "uint256",
          "name": "",
          "type": "uint256"
        }
      ],
      "stateMutability": "view",
      "type": "function"
    },
    {
      "inputs": [
        {
          "internalType": "bytes32",
          "name": "fileHash",
          "type": "bytes32"
        }
      ],
      "name": "getTotalPaidForFile",
      "outputs": [
        {
          "internalType": "uint256",
          "name": "",
          "type": "uint256"
        }
      ],
      "stateMutability": "view",
      "type": "function"
    },
    {
      "inputs": [
        {
          "internalType": "address",
          "name": "user",
          "type": "address"
        },
        {
          "internalType": "bytes32",
          "name": "fileHash",
          "type": "bytes32"
        }
      ],
      "name": "getUserPaidForFile",
      "outputs": [
        {
          "internalType": "uint256",
          "name": "",
          "type": "uint256"
        }
      ],
      "stateMutability": "view",
      "type": "function"
    },
    {
      "inputs": [
        {
          "internalType": "address",
          "name": "_ancToken",
          "type": "address"
        }
      ],
      "name": "initialize",
      "outputs": [],
      "stateMutability": "nonpayable",
      "type": "function"
    },
    {
      "inputs": [],
      "name": "owner",
      "outputs": [
        {
          "internalType": "address",
          "name": "",
          "type": "address"
        }
      ],
      "stateMutability": "view",
      "type": "function"
    },
    {
      "inputs": [
        {
          "internalType": "bytes32",
          "name": "fileHash",
          "type": "bytes32"
        },
        {
          "internalType": "uint256",
          "name": "amount",
          "type": "uint256"
        },
        {
          "internalType": "string",
          "name": "purpose",
          "type": "string"
        }
      ],
      "name": "payForFileStorage",
      "outputs": [],
      "stateMutability": "nonpayable",
      "type": "function"
    },
    {
      "inputs": [],
      "name": "renounceOwnership",
      "outputs": [],
      "stateMutability": "nonpayable",
      "type": "function"
    },
    {
      "inputs": [],
      "name": "totalANCSpent",
      "outputs": [
        {
          "internalType": "uint256",
          "name": "",
          "type": "uint256"
        }
      ],
      "stateMutability": "view",
      "type": "function"
    },
    {
      "inputs": [
        {
          "internalType": "bytes32",
          "name": "",
          "type": "bytes32"
        }
      ],
      "name": "totalPaidANC",
      "outputs": [
        {
          "internalType": "uint256",
          "name": "",
          "type": "uint256"
        }
      ],
      "stateMutability": "view",
      "type": "function"
    },
    {
      "inputs": [
        {
          "internalType": "address",
          "name": "newOwner",
          "type": "address"
        }
      ],
      "name": "transferOwnership",
      "outputs": [],
      "stateMutability": "nonpayable",
      "type": "function"
    },
    {
      "inputs": [
        {
          "internalType": "address",
          "name": "",
          "type": "address"
        },
        {
          "internalType": "bytes32",
          "name": "",
          "type": "bytes32"
        }
      ],
      "name": "userPaidANC",
      "outputs": [
        {
          "internalType": "uint256",
          "name": "",
          "type": "uint256"
        }
      ],
      "stateMutability": "view",
      "type": "function"
    }
  ],
  "bytecode": "0x608060405234801561001057600080fd5b506112ab806100206000396000f3fe608060405234801561001057600080fd5b50600436106100b45760003560e01c8063c4d66de811610071578063c4d66de81461017b578063dfddc89b14610197578063ef075522146101c7578063f17d8ac9146101e5578063f2fde38b14610203578063fb3610121461021f576100b4565b806303fcc981146100b95780632fd5afa1146100d5578063602ef43f146100f3578063715018a6146101235780637f8b62dc1461012d5780638da5cb5b1461015d575b600080fd5b6100d360048036038101906100ce9190610b56565b61024f565b005b6100dd6104b7565b6040516100ea9190610bd9565b60405180910390f35b61010d60048036038101906101089190610bf4565b6104c1565b60405161011a9190610bd9565b60405180910390f35b61012b6104d9565b005b61014760048036038101906101429190610bf4565b6104ed565b6040516101549190610bd9565b60405180910390f35b61016561050a565b6040516101729190610c62565b60405180910390f35b61019560048036038101906101909190610ca9565b610534565b005b6101b160048036038101906101ac9190610cd6565b610723565b6040516101be9190610bd9565b60405180910390f35b6101cf610748565b6040516101dc9190610d75565b60405180910390f35b6101ed61076e565b6040516101fa9190610bd9565b60405180910390f35b61021d60048036038101906102189190610ca9565b610774565b005b61023960048036038101906102349190610cd6565b6107f7565b6040516102469190610bd9565b60405180910390f35b60008311610292576040517f08c379a000000000000000000000000000000000000000000000000000000000815260040161028990610ded565b60405180910390fd5b6000801b84036102d7576040517f08c379a00000000000000000000000000000000000000000000000000000000081526004016102ce90610e59565b60405180910390fd5b606560009054906101000a900473ffffffffffffffffffffffffffffffffffffffff1673ffffffffffffffffffffffffffffffffffffffff166379cc679033856040518363ffffffff1660e01b8152600401610334929190610e79565b600060405180830381600087803b15801561034e57600080fd5b505af1158015610362573d6000803e3d6000fd5b50505050826066600086815260200190815260200160002060008282546103899190610ed1565b9250508190555082606760003373ffffffffffffffffffffffffffffffffffffffff1673ffffffffffffffffffffffffffffffffffffffff168152602001908152602001600020600086815260200190815260200160002060008282546103f09190610ed1565b9250508190555082606860008282546104099190610ed1565b92505081905550833373ffffffffffffffffffffffffffffffffffffffff167fa942627b32793380c31fa51ec070fa2b3f7a7650ca75e4051740d2db9bf630bb856040516104579190610bd9565b60405180910390a33373ffffffffffffffffffffffffffffffffffffffff167f7ade235b0c4e063e84b0e8a7c99f60adc60a760bbfc7095e290310387f94709a8484846040516104a993929190610f52565b60405180910390a250505050565b6000606854905090565b60666020528060005260406000206000915090505481565b6104e1610852565b6104eb60006108d0565b565b600060666000838152602001908152602001600020549050919050565b6000603360009054906101000a900473ffffffffffffffffffffffffffffffffffffffff16905090565b60008060019054906101000a900460ff161590508080156105655750600160008054906101000a900460ff1660ff16105b80610592575061057430610996565b1580156105915750600160008054906101000a900460ff1660ff16145b5b6105d1576040517f08c379a00000000000000000000000000000000000000000000000000000000081526004016105c890610ff6565b60405180910390fd5b60016000806101000a81548160ff021916908360ff160217905550801561060e576001600060016101000a81548160ff0219169083151502179055505b600073ffffffffffffffffffffffffffffffffffffffff168273ffffffffffffffffffffffffffffffffffffffff160361067d576040517f08c379a000000000000000000000000000000000000000000000000000000000815260040161067490611062565b60405180910390fd5b6106856109b9565b81606560006101000a81548173ffffffffffffffffffffffffffffffffffffffff021916908373ffffffffffffffffffffffffffffffffffffffff160217905550801561071f5760008060016101000a81548160ff0219169083151502179055507f7f26b83ff96e1f2b6a682f133852f6798a09c465da95921460cefb3847402498600160405161071691906110ca565b60405180910390a15b5050565b6067602052816000526040600020602052806000526040600020600091509150505481565b606560009054906101000a900473ffffffffffffffffffffffffffffffffffffffff1681565b60685481565b61077c610852565b600073ffffffffffffffffffffffffffffffffffffffff168173ffffffffffffffffffffffffffffffffffffffff16036107eb576040517f08c379a00000000000000000000000000000000000000000000000000000000081526004016107e290611157565b60405180910390fd5b6107f4816108d0565b50565b6000606760008473ffffffffffffffffffffffffffffffffffffffff1673ffffffffffffffffffffffffffffffffffffffff168152602001908152602001600020600083815260200190815260200160002054905092915050565b61085a610a12565b73ffffffffffffffffffffffffffffffffffffffff1661087861050a565b73ffffffffffffffffffffffffffffffffffffffff16146108ce576040517f08c379a00000000000000000000000000000000000000000000000000000000081526004016108c5906111c3565b60405180910390fd5b565b6000603360009054906101000a900473ffffffffffffffffffffffffffffffffffffffff16905081603360006101000a81548173ffffffffffffffffffffffffffffffffffffffff021916908373ffffffffffffffffffffffffffffffffffffffff1602179055508173ffffffffffffffffffffffffffffffffffffffff168173ffffffffffffffffffffffffffffffffffffffff167f8be0079c531659141344cd1fd0a4f28419497f9722a3daafe3b4186f6b6457e060405160405180910390a35050565b6000808273ffffffffffffffffffffffffffffffffffffffff163b119050919050565b600060019054906101000a900460ff16610a08576040517f08c379a00000000000000000000000000000000000000000000000000000000081526004016109ff90611255565b60405180910390fd5b610a10610a1a565b565b600033905090565b600060019054906101000a900460ff16610a69576040517f08c379a0000000000000000000000000000000000000000000000000000000008152600401610a6090611255565b60405180910390fd5b610a79610a74610a12565b6108d0565b565b600080fd5b600080fd5b6000819050919050565b610a9881610a85565b8114610aa357600080fd5b50565b600081359050610ab581610a8f565b92915050565b6000819050919050565b610ace81610abb565b8114610ad957600080fd5b50565b600081359050610aeb81610ac5565b92915050565b600080fd5b600080fd5b600080fd5b60008083601f840112610b1657610b15610af1565b5b8235905067ffffffffffffffff811115610b3357610b32610af6565b5b602083019150836001820283011115610b4f57610b4e610afb565b5b9250929050565b60008060008060608587031215610b7057610b6f610a7b565b5b6000610b7e87828801610aa6565b9450506020610b8f87828801610adc565b935050604085013567ffffffffffffffff811115610bb057610baf610a80565b5b610bbc87828801610b00565b925092505092959194509250565b610bd381610abb565b82525050565b6000602082019050610bee6000830184610bca565b92915050565b600060208284031215610c0a57610c09610a7b565b5b6000610c1884828501610aa6565b91505092915050565b600073ffffffffffffffffffffffffffffffffffffffff82169050919050565b6000610c4c82610c21565b9050919050565b610c5c81610c41565b82525050565b6000602082019050610c776000830184610c53565b92915050565b610c8681610c41565b8114610c9157600080fd5b50565b600081359050610ca381610c7d565b92915050565b600060208284031215610cbf57610cbe610a7b565b5b6000610ccd84828501610c94565b91505092915050565b60008060408385031215610ced57610cec610a7b565b5b6000610cfb85828601610c94565b9250506020610d0c85828601610aa6565b9150509250929050565b6000819050919050565b6000610d3b610d36610d3184610c21565b610d16565b610c21565b9050919050565b6000610d4d82610d20565b9050919050565b6000610d5f82610d42565b9050919050565b610d6f81610d54565b82525050565b6000602082019050610d8a6000830184610d66565b92915050565b600082825260208201905092915050565b7f5a65726f20616d6f756e74000000000000000000000000000000000000000000600082015250565b6000610dd7600b83610d90565b9150610de282610da1565b602082019050919050565b60006020820190508181036000830152610e0681610dca565b9050919050565b7f496e76616c69642066696c654861736800000000000000000000000000000000600082015250565b6000610e43601083610d90565b9150610e4e82610e0d565b602082019050919050565b60006020820190508181036000830152610e7281610e36565b9050919050565b6000604082019050610e8e6000830185610c53565b610e9b6020830184610bca565b9392505050565b7f4e487b7100000000000000000000000000000000000000000000000000000000600052601160045260246000fd5b6000610edc82610abb565b9150610ee783610abb565b9250828201905080821115610eff57610efe610ea2565b5b92915050565b82818337600083830152505050565b6000601f19601f8301169050919050565b6000610f318385610d90565b9350610f3e838584610f05565b610f4783610f14565b840190509392505050565b6000604082019050610f676000830186610bca565b8181036020830152610f7a818486610f25565b9050949350505050565b7f496e697469616c697a61626c653a20636f6e747261637420697320616c72656160008201527f647920696e697469616c697a6564000000000000000000000000000000000000602082015250565b6000610fe0602e83610d90565b9150610feb82610f84565b604082019050919050565b6000602082019050818103600083015261100f81610fd3565b9050919050565b7f414e4320746f6b656e2072657175697265640000000000000000000000000000600082015250565b600061104c601283610d90565b915061105782611016565b602082019050919050565b6000602082019050818103600083015261107b8161103f565b9050919050565b6000819050919050565b600060ff82169050919050565b60006110b46110af6110aa84611082565b610d16565b61108c565b9050919050565b6110c481611099565b82525050565b60006020820190506110df60008301846110bb565b92915050565b7f4f776e61626c653a206e6577206f776e657220697320746865207a65726f206160008201527f6464726573730000000000000000000000000000000000000000000000000000602082015250565b6000611141602683610d90565b915061114c826110e5565b604082019050919050565b6000602082019050818103600083015261117081611134565b9050919050565b7f4f776e61626c653a2063616c6c6572206973206e6f7420746865206f776e6572600082015250565b60006111ad602083610d90565b91506111b882611177565b602082019050919050565b600060208201905081810360008301526111dc816111a0565b9050919050565b7f496e697469616c697a61626c653a20636f6e7472616374206973206e6f74206960008201527f6e697469616c697a696e67000000000000000000000000000000000000000000602082015250565b600061123f602b83610d90565b915061124a826111e3565b604082019050919050565b6000602082019050818103600083015261126e81611232565b905091905056fea2646970667358221220c4cc0eb869c94464869e90a7d51327613ef9246d1b735034f93834dfa0905a5964736f6c63430008140033",
  "linkReferences": {},
  "deployedLinkReferences": {}
}