{
  "_format": "hh-sol-artifact-1",
  "contractName": "StorageManager",
  "sourceName": "contracts/StorageManager.sol",
  "abi": [
    {
      "anonymous": false,
      "inputs": [
        {
          "indexed": true,
          "internalType": "address",
          "name": "user",
          "type": "address"
        },
        {
          "indexed": false,
          "internalType": "uint256",
          "name": "amount",
          "type": "uint256"
        },
        {
          "indexed": false,
          "internalType": "string",
          "name": "purpose",
          "type": "string"
        }
      ],
      "name": "ANCSpent",
      "type": "event"
    },
    {
      "anonymous": false,
      "inputs": [
        {
          "indexed": false,
          "internalType": "uint256",
          "name": "amount",
          "type": "uint256"
        },
        {
          "indexed": false,
          "internalType": "uint256",
          "name": "timestamp",
          "type": "uint256"
        }
      ],
      "name": "AutoBurned",
      "type": "event"
    },
    {
      "anonymous": false,
      "inputs": [
        {
          "indexed": true,
          "internalType": "address",
          "name": "user",
          "type": "address"
        },
        {
          "indexed": true,
          "internalType": "bytes32",
          "name": "fileHash",
          "type": "bytes32"
        },
        {
          "indexed": false,
          "internalType": "uint256",
          "name": "amount",
          "type": "uint256"
        }
      ],
      "name": "FileStoragePaid",
      "type": "event"
    },
    {
      "anonymous": false,
      "inputs": [
        {
          "indexed": false,
          "internalType": "uint8",
          "name": "version",
          "type": "uint8"
        }
      ],
      "name": "Initialized",
      "type": "event"
    },
    {
      "anonymous": false,
      "inputs": [
        {
          "indexed": true,
          "internalType": "address",
          "name": "previousOwner",
          "type": "address"
        },
        {
          "indexed": true,
          "internalType": "address",
          "name": "newOwner",
          "type": "address"
        }
      ],
      "name": "OwnershipTransferred",
      "type": "event"
    },
    {
      "inputs": [],
      "name": "ancToken",
      "outputs": [
        {
          "internalType": "contract ERC20BurnableUpgradeable",
          "name": "",
          "type": "address"
        }
      ],
      "stateMutability": "view",
      "type": "function"
    },
    {
      "inputs": [],
      "name": "burnAmount",
      "outputs": [
        {
          "internalType": "uint256",
          "name": "",
          "type": "uint256"
        }
      ],
      "stateMutability": "view",
      "type": "function"
    },
    {
      "inputs": [],
      "name": "burnInterval",
      "outputs": [
        {
          "internalType": "uint256",
          "name": "",
          "type": "uint256"
        }
      ],
      "stateMutability": "view",
      "type": "function"
    },
    {
      "inputs": [
        {
          "internalType": "bytes",
          "name": "",
          "type": "bytes"
        }
      ],
      "name": "checkUpkeep",
      "outputs": [
        {
          "internalType": "bool",
          "name": "upkeepNeeded",
          "type": "bool"
        },
        {
          "internalType": "bytes",
          "name": "",
          "type": "bytes"
        }
      ],
      "stateMutability": "view",
      "type": "function"
    },
    {
      "inputs": [],
      "name": "getTotalANCSpent",
      "outputs": [
        {
          "internalType": "uint256",
          "name": "",
          "type": "uint256"
        }
      ],
      "stateMutability": "view",
      "type": "function"
    },
    {
      "inputs": [
        {
          "internalType": "bytes32",
          "name": "fileHash",
          "type": "bytes32"
        }
      ],
      "name": "getTotalPaidForFile",
      "outputs": [
        {
          "internalType": "uint256",
          "name": "",
          "type": "uint256"
        }
      ],
      "stateMutability": "view",
      "type": "function"
    },
    {
      "inputs": [
        {
          "internalType": "address",
          "name": "user",
          "type": "address"
        },
        {
          "internalType": "bytes32",
          "name": "fileHash",
          "type": "bytes32"
        }
      ],
      "name": "getUserPaidForFile",
      "outputs": [
        {
          "internalType": "uint256",
          "name": "",
          "type": "uint256"
        }
      ],
      "stateMutability": "view",
      "type": "function"
    },
    {
      "inputs": [
        {
          "internalType": "address",
          "name": "_ancToken",
          "type": "address"
        }
      ],
      "name": "initialize",
      "outputs": [],
      "stateMutability": "nonpayable",
      "type": "function"
    },
    {
      "inputs": [],
      "name": "lastBurn",
      "outputs": [
        {
          "internalType": "uint256",
          "name": "",
          "type": "uint256"
        }
      ],
      "stateMutability": "view",
      "type": "function"
    },
    {
      "inputs": [],
      "name": "owner",
      "outputs": [
        {
          "internalType": "address",
          "name": "",
          "type": "address"
        }
      ],
      "stateMutability": "view",
      "type": "function"
    },
    {
      "inputs": [
        {
          "internalType": "bytes32",
          "name": "fileHash",
          "type": "bytes32"
        },
        {
          "internalType": "uint256",
          "name": "amount",
          "type": "uint256"
        },
        {
          "internalType": "string",
          "name": "purpose",
          "type": "string"
        }
      ],
      "name": "payForFileStorage",
      "outputs": [],
      "stateMutability": "nonpayable",
      "type": "function"
    },
    {
      "inputs": [
        {
          "internalType": "bytes",
          "name": "",
          "type": "bytes"
        }
      ],
      "name": "performUpkeep",
      "outputs": [],
      "stateMutability": "nonpayable",
      "type": "function"
    },
    {
      "inputs": [],
      "name": "renounceOwnership",
      "outputs": [],
      "stateMutability": "nonpayable",
      "type": "function"
    },
    {
      "inputs": [
        {
          "internalType": "uint256",
          "name": "_interval",
          "type": "uint256"
        },
        {
          "internalType": "uint256",
          "name": "_amount",
          "type": "uint256"
        }
      ],
      "name": "setAutoBurnParams",
      "outputs": [],
      "stateMutability": "nonpayable",
      "type": "function"
    },
    {
      "inputs": [],
      "name": "totalANCSpent",
      "outputs": [
        {
          "internalType": "uint256",
          "name": "",
          "type": "uint256"
        }
      ],
      "stateMutability": "view",
      "type": "function"
    },
    {
      "inputs": [
        {
          "internalType": "bytes32",
          "name": "",
          "type": "bytes32"
        }
      ],
      "name": "totalPaidANC",
      "outputs": [
        {
          "internalType": "uint256",
          "name": "",
          "type": "uint256"
        }
      ],
      "stateMutability": "view",
      "type": "function"
    },
    {
      "inputs": [
        {
          "internalType": "address",
          "name": "newOwner",
          "type": "address"
        }
      ],
      "name": "transferOwnership",
      "outputs": [],
      "stateMutability": "nonpayable",
      "type": "function"
    },
    {
      "inputs": [
        {
          "internalType": "address",
          "name": "",
          "type": "address"
        },
        {
          "internalType": "bytes32",
          "name": "",
          "type": "bytes32"
        }
      ],
      "name": "userPaidANC",
      "outputs": [
        {
          "internalType": "uint256",
          "name": "",
          "type": "uint256"
        }
      ],
      "stateMutability": "view",
      "type": "function"
    }
  ],
  "bytecode": "0x608060405234801561001057600080fd5b50611b70806100206000396000f3fe608060405234801561001057600080fd5b50600436106101165760003560e01c80638da5cb5b116100a2578063e55a68b311610071578063e55a68b3146102ce578063ef075522146102ec578063f17d8ac91461030a578063f2fde38b14610328578063fb3610121461034457610116565b80638da5cb5b14610246578063bbce2c1714610264578063c4d66de814610282578063dfddc89b1461029e57610116565b8063486a7e6b116100e9578063486a7e6b1461018d578063602ef43f146101ab5780636e04ff0d146101db578063715018a61461020c5780637f8b62dc1461021657610116565b806303fcc9811461011b57806317b8228b146101375780632fd5afa1146101535780634585e33b14610171575b600080fd5b6101356004803603810190610130919061101f565b610374565b005b610151600480360381019061014c9190611093565b6105dc565b005b61015b61067c565b60405161016891906110e2565b60405180910390f35b61018b60048036038101906101869190611153565b610686565b005b61019561088f565b6040516101a291906110e2565b60405180910390f35b6101c560048036038101906101c091906111a0565b610895565b6040516101d291906110e2565b60405180910390f35b6101f560048036038101906101f09190611153565b6108ad565b604051610203929190611278565b60405180910390f35b610214610976565b005b610230600480360381019061022b91906111a0565b61098a565b60405161023d91906110e2565b60405180910390f35b61024e6109a7565b60405161025b91906112e9565b60405180910390f35b61026c6109d1565b60405161027991906110e2565b60405180910390f35b61029c60048036038101906102979190611330565b6109d7565b005b6102b860048036038101906102b3919061135d565b610be6565b6040516102c591906110e2565b60405180910390f35b6102d6610c0b565b6040516102e391906110e2565b60405180910390f35b6102f4610c11565b60405161030191906113fc565b60405180910390f35b610312610c37565b60405161031f91906110e2565b60405180910390f35b610342600480360381019061033d9190611330565b610c3d565b005b61035e6004803603810190610359919061135d565b610cc0565b60405161036b91906110e2565b60405180910390f35b600083116103b7576040517f08c379a00000000000000000000000000000000000000000000000000000000081526004016103ae90611474565b60405180910390fd5b6000801b84036103fc576040517f08c379a00000000000000000000000000000000000000000000000000000000081526004016103f3906114e0565b60405180910390fd5b606560009054906101000a900473ffffffffffffffffffffffffffffffffffffffff1673ffffffffffffffffffffffffffffffffffffffff166379cc679033856040518363ffffffff1660e01b8152600401610459929190611500565b600060405180830381600087803b15801561047357600080fd5b505af1158015610487573d6000803e3d6000fd5b50505050826066600086815260200190815260200160002060008282546104ae9190611558565b9250508190555082606760003373ffffffffffffffffffffffffffffffffffffffff1673ffffffffffffffffffffffffffffffffffffffff168152602001908152602001600020600086815260200190815260200160002060008282546105159190611558565b92505081905550826068600082825461052e9190611558565b92505081905550833373ffffffffffffffffffffffffffffffffffffffff167fa942627b32793380c31fa51ec070fa2b3f7a7650ca75e4051740d2db9bf630bb8560405161057c91906110e2565b60405180910390a33373ffffffffffffffffffffffffffffffffffffffff167f7ade235b0c4e063e84b0e8a7c99f60adc60a760bbfc7095e290310387f94709a8484846040516105ce939291906115c8565b60405180910390a250505050565b6105e4610d1b565b60008211610627576040517f08c379a000000000000000000000000000000000000000000000000000000000815260040161061e90611646565b60405180910390fd5b6000811161066a576040517f08c379a0000000000000000000000000000000000000000000000000000000008152600401610661906116b2565b60405180910390fd5b81606a8190555080606b819055505050565b6000606854905090565b606a546069544261069791906116d2565b10156106d8576040517f08c379a00000000000000000000000000000000000000000000000000000000081526004016106cf90611752565b60405180910390fd5b606b54606560009054906101000a900473ffffffffffffffffffffffffffffffffffffffff1673ffffffffffffffffffffffffffffffffffffffff166370a08231306040518263ffffffff1660e01b815260040161073691906112e9565b602060405180830381865afa158015610753573d6000803e3d6000fd5b505050506040513d601f19601f820116820180604052508101906107779190611787565b10156107b8576040517f08c379a00000000000000000000000000000000000000000000000000000000081526004016107af90611800565b60405180910390fd5b606560009054906101000a900473ffffffffffffffffffffffffffffffffffffffff1673ffffffffffffffffffffffffffffffffffffffff166342966c68606b546040518263ffffffff1660e01b815260040161081591906110e2565b600060405180830381600087803b15801561082f57600080fd5b505af1158015610843573d6000803e3d6000fd5b50505050426069819055507f1367a80f8266c25ef54f82fcc1e4a8eb1c658801b98e56646cb0da2a7398ac22606b54606954604051610883929190611820565b60405180910390a15050565b606b5481565b60666020528060005260406000206000915090505481565b60006060606a54606954426108c291906116d2565b1015801561096d5750606b54606560009054906101000a900473ffffffffffffffffffffffffffffffffffffffff1673ffffffffffffffffffffffffffffffffffffffff166370a08231306040518263ffffffff1660e01b815260040161092991906112e9565b602060405180830381865afa158015610946573d6000803e3d6000fd5b505050506040513d601f19601f8201168201806040525081019061096a9190611787565b10155b91509250929050565b61097e610d1b565b6109886000610d99565b565b600060666000838152602001908152602001600020549050919050565b6000603360009054906101000a900473ffffffffffffffffffffffffffffffffffffffff16905090565b60695481565b60008060019054906101000a900460ff16159050808015610a085750600160008054906101000a900460ff1660ff16105b80610a355750610a1730610e5f565b158015610a345750600160008054906101000a900460ff1660ff16145b5b610a74576040517f08c379a0000000000000000000000000000000000000000000000000000000008152600401610a6b906118bb565b60405180910390fd5b60016000806101000a81548160ff021916908360ff1602179055508015610ab1576001600060016101000a81548160ff0219169083151502179055505b600073ffffffffffffffffffffffffffffffffffffffff168273ffffffffffffffffffffffffffffffffffffffff1603610b20576040517f08c379a0000000000000000000000000000000000000000000000000000000008152600401610b1790611927565b60405180910390fd5b610b28610e82565b81606560006101000a81548173ffffffffffffffffffffffffffffffffffffffff021916908373ffffffffffffffffffffffffffffffffffffffff16021790555062093a80606a81905550678ac7230489e80000606b81905550426069819055508015610be25760008060016101000a81548160ff0219169083151502179055507f7f26b83ff96e1f2b6a682f133852f6798a09c465da95921460cefb38474024986001604051610bd9919061198f565b60405180910390a15b5050565b6067602052816000526040600020602052806000526040600020600091509150505481565b606a5481565b606560009054906101000a900473ffffffffffffffffffffffffffffffffffffffff1681565b60685481565b610c45610d1b565b600073ffffffffffffffffffffffffffffffffffffffff168173ffffffffffffffffffffffffffffffffffffffff1603610cb4576040517f08c379a0000000000000000000000000000000000000000000000000000000008152600401610cab90611a1c565b60405180910390fd5b610cbd81610d99565b50565b6000606760008473ffffffffffffffffffffffffffffffffffffffff1673ffffffffffffffffffffffffffffffffffffffff168152602001908152602001600020600083815260200190815260200160002054905092915050565b610d23610edb565b73ffffffffffffffffffffffffffffffffffffffff16610d416109a7565b73ffffffffffffffffffffffffffffffffffffffff1614610d97576040517f08c379a0000000000000000000000000000000000000000000000000000000008152600401610d8e90611a88565b60405180910390fd5b565b6000603360009054906101000a900473ffffffffffffffffffffffffffffffffffffffff16905081603360006101000a81548173ffffffffffffffffffffffffffffffffffffffff021916908373ffffffffffffffffffffffffffffffffffffffff1602179055508173ffffffffffffffffffffffffffffffffffffffff168173ffffffffffffffffffffffffffffffffffffffff167f8be0079c531659141344cd1fd0a4f28419497f9722a3daafe3b4186f6b6457e060405160405180910390a35050565b6000808273ffffffffffffffffffffffffffffffffffffffff163b119050919050565b600060019054906101000a900460ff16610ed1576040517f08c379a0000000000000000000000000000000000000000000000000000000008152600401610ec890611b1a565b60405180910390fd5b610ed9610ee3565b565b600033905090565b600060019054906101000a900460ff16610f32576040517f08c379a0000000000000000000000000000000000000000000000000000000008152600401610f2990611b1a565b60405180910390fd5b610f42610f3d610edb565b610d99565b565b600080fd5b600080fd5b6000819050919050565b610f6181610f4e565b8114610f6c57600080fd5b50565b600081359050610f7e81610f58565b92915050565b6000819050919050565b610f9781610f84565b8114610fa257600080fd5b50565b600081359050610fb481610f8e565b92915050565b600080fd5b600080fd5b600080fd5b60008083601f840112610fdf57610fde610fba565b5b8235905067ffffffffffffffff811115610ffc57610ffb610fbf565b5b60208301915083600182028301111561101857611017610fc4565b5b9250929050565b6000806000806060858703121561103957611038610f44565b5b600061104787828801610f6f565b945050602061105887828801610fa5565b935050604085013567ffffffffffffffff81111561107957611078610f49565b5b61108587828801610fc9565b925092505092959194509250565b600080604083850312156110aa576110a9610f44565b5b60006110b885828601610fa5565b92505060206110c985828601610fa5565b9150509250929050565b6110dc81610f84565b82525050565b60006020820190506110f760008301846110d3565b92915050565b60008083601f84011261111357611112610fba565b5b8235905067ffffffffffffffff8111156111305761112f610fbf565b5b60208301915083600182028301111561114c5761114b610fc4565b5b9250929050565b6000806020838503121561116a57611169610f44565b5b600083013567ffffffffffffffff81111561118857611187610f49565b5b611194858286016110fd565b92509250509250929050565b6000602082840312156111b6576111b5610f44565b5b60006111c484828501610f6f565b91505092915050565b60008115159050919050565b6111e2816111cd565b82525050565b600081519050919050565b600082825260208201905092915050565b60005b83811015611222578082015181840152602081019050611207565b60008484015250505050565b6000601f19601f8301169050919050565b600061124a826111e8565b61125481856111f3565b9350611264818560208601611204565b61126d8161122e565b840191505092915050565b600060408201905061128d60008301856111d9565b818103602083015261129f818461123f565b90509392505050565b600073ffffffffffffffffffffffffffffffffffffffff82169050919050565b60006112d3826112a8565b9050919050565b6112e3816112c8565b82525050565b60006020820190506112fe60008301846112da565b92915050565b61130d816112c8565b811461131857600080fd5b50565b60008135905061132a81611304565b92915050565b60006020828403121561134657611345610f44565b5b60006113548482850161131b565b91505092915050565b6000806040838503121561137457611373610f44565b5b60006113828582860161131b565b925050602061139385828601610f6f565b9150509250929050565b6000819050919050565b60006113c26113bd6113b8846112a8565b61139d565b6112a8565b9050919050565b60006113d4826113a7565b9050919050565b60006113e6826113c9565b9050919050565b6113f6816113db565b82525050565b600060208201905061141160008301846113ed565b92915050565b600082825260208201905092915050565b7f5a65726f20616d6f756e74000000000000000000000000000000000000000000600082015250565b600061145e600b83611417565b915061146982611428565b602082019050919050565b6000602082019050818103600083015261148d81611451565b9050919050565b7f496e76616c69642066696c654861736800000000000000000000000000000000600082015250565b60006114ca601083611417565b91506114d582611494565b602082019050919050565b600060208201905081810360008301526114f9816114bd565b9050919050565b600060408201905061151560008301856112da565b61152260208301846110d3565b9392505050565b7f4e487b7100000000000000000000000000000000000000000000000000000000600052601160045260246000fd5b600061156382610f84565b915061156e83610f84565b925082820190508082111561158657611585611529565b5b92915050565b82818337600083830152505050565b60006115a78385611417565b93506115b483858461158c565b6115bd8361122e565b840190509392505050565b60006040820190506115dd60008301866110d3565b81810360208301526115f081848661159b565b9050949350505050565b7f496e74657276616c206d757374206265203e2030000000000000000000000000600082015250565b6000611630601483611417565b915061163b826115fa565b602082019050919050565b6000602082019050818103600083015261165f81611623565b9050919050565b7f416d6f756e74206d757374206265203e20300000000000000000000000000000600082015250565b600061169c601283611417565b91506116a782611666565b602082019050919050565b600060208201905081810360008301526116cb8161168f565b9050919050565b60006116dd82610f84565b91506116e883610f84565b9250828203905081811115611700576116ff611529565b5b92915050565b7f4275726e20696e74657276616c206e6f74207265616368656400000000000000600082015250565b600061173c601983611417565b915061174782611706565b602082019050919050565b6000602082019050818103600083015261176b8161172f565b9050919050565b60008151905061178181610f8e565b92915050565b60006020828403121561179d5761179c610f44565b5b60006117ab84828501611772565b91505092915050565b7f4e6f7420656e6f75676820414e4320746f206275726e00000000000000000000600082015250565b60006117ea601683611417565b91506117f5826117b4565b602082019050919050565b60006020820190508181036000830152611819816117dd565b9050919050565b600060408201905061183560008301856110d3565b61184260208301846110d3565b9392505050565b7f496e697469616c697a61626c653a20636f6e747261637420697320616c72656160008201527f647920696e697469616c697a6564000000000000000000000000000000000000602082015250565b60006118a5602e83611417565b91506118b082611849565b604082019050919050565b600060208201905081810360008301526118d481611898565b9050919050565b7f414e4320746f6b656e2072657175697265640000000000000000000000000000600082015250565b6000611911601283611417565b915061191c826118db565b602082019050919050565b6000602082019050818103600083015261194081611904565b9050919050565b6000819050919050565b600060ff82169050919050565b600061197961197461196f84611947565b61139d565b611951565b9050919050565b6119898161195e565b82525050565b60006020820190506119a46000830184611980565b92915050565b7f4f776e61626c653a206e6577206f776e657220697320746865207a65726f206160008201527f6464726573730000000000000000000000000000000000000000000000000000602082015250565b6000611a06602683611417565b9150611a11826119aa565b604082019050919050565b60006020820190508181036000830152611a35816119f9565b9050919050565b7f4f776e61626c653a2063616c6c6572206973206e6f7420746865206f776e6572600082015250565b6000611a72602083611417565b9150611a7d82611a3c565b602082019050919050565b60006020820190508181036000830152611aa181611a65565b9050919050565b7f496e697469616c697a61626c653a20636f6e7472616374206973206e6f74206960008201527f6e697469616c697a696e67000000000000000000000000000000000000000000602082015250565b6000611b04602b83611417565b9150611b0f82611aa8565b604082019050919050565b60006020820190508181036000830152611b3381611af7565b905091905056fea2646970667358221220295795e86632f1ed8a199e321a43f6b7db9fbb18d8dfccf7c286f13e3fc08ac264736f6c63430008140033",
  "linkReferences": {},
  "deployedLinkReferences": {}
}