{
  "_format": "hh-sol-artifact-1",
  "contractName": "StorageManager",
  "sourceName": "contracts/StorageManager.sol",
  "abi": [
    {
      "inputs": [],
      "stateMutability": "nonpayable",
      "type": "constructor"
    },
    {
      "anonymous": false,
      "inputs": [
        {
          "indexed": true,
          "internalType": "address",
          "name": "user",
          "type": "address"
        },
        {
          "indexed": false,
          "internalType": "uint256",
          "name": "amount",
          "type": "uint256"
        },
        {
          "indexed": false,
          "internalType": "string",
          "name": "purpose",
          "type": "string"
        }
      ],
      "name": "ANCSpent",
      "type": "event"
    },
    {
      "anonymous": false,
      "inputs": [
        {
          "indexed": false,
          "internalType": "address",
          "name": "previousAdmin",
          "type": "address"
        },
        {
          "indexed": false,
          "internalType": "address",
          "name": "newAdmin",
          "type": "address"
        }
      ],
      "name": "AdminChanged",
      "type": "event"
    },
    {
      "anonymous": false,
      "inputs": [
        {
          "indexed": false,
          "internalType": "uint256",
          "name": "amount",
          "type": "uint256"
        },
        {
          "indexed": false,
          "internalType": "uint256",
          "name": "timestamp",
          "type": "uint256"
        }
      ],
      "name": "AutoBurned",
      "type": "event"
    },
    {
      "anonymous": false,
      "inputs": [
        {
          "indexed": true,
          "internalType": "address",
          "name": "beacon",
          "type": "address"
        }
      ],
      "name": "BeaconUpgraded",
      "type": "event"
    },
    {
      "anonymous": false,
      "inputs": [
        {
          "indexed": true,
          "internalType": "address",
          "name": "user",
          "type": "address"
        },
        {
          "indexed": true,
          "internalType": "bytes32",
          "name": "fileHash",
          "type": "bytes32"
        },
        {
          "indexed": false,
          "internalType": "uint256",
          "name": "amount",
          "type": "uint256"
        }
      ],
      "name": "FileStoragePaid",
      "type": "event"
    },
    {
      "anonymous": false,
      "inputs": [
        {
          "indexed": false,
          "internalType": "uint8",
          "name": "version",
          "type": "uint8"
        }
      ],
      "name": "Initialized",
      "type": "event"
    },
    {
      "anonymous": false,
      "inputs": [
        {
          "indexed": true,
          "internalType": "address",
          "name": "previousOwner",
          "type": "address"
        },
        {
          "indexed": true,
          "internalType": "address",
          "name": "newOwner",
          "type": "address"
        }
      ],
      "name": "OwnershipTransferred",
      "type": "event"
    },
    {
      "anonymous": false,
      "inputs": [
        {
          "indexed": true,
          "internalType": "address",
          "name": "implementation",
          "type": "address"
        }
      ],
      "name": "Upgraded",
      "type": "event"
    },
    {
      "inputs": [],
      "name": "ancToken",
      "outputs": [
        {
          "internalType": "contract ERC20BurnableUpgradeable",
          "name": "",
          "type": "address"
        }
      ],
      "stateMutability": "view",
      "type": "function"
    },
    {
      "inputs": [],
      "name": "burnAmount",
      "outputs": [
        {
          "internalType": "uint256",
          "name": "",
          "type": "uint256"
        }
      ],
      "stateMutability": "view",
      "type": "function"
    },
    {
      "inputs": [],
      "name": "burnInterval",
      "outputs": [
        {
          "internalType": "uint256",
          "name": "",
          "type": "uint256"
        }
      ],
      "stateMutability": "view",
      "type": "function"
    },
    {
      "inputs": [
        {
          "internalType": "bytes",
          "name": "",
          "type": "bytes"
        }
      ],
      "name": "checkUpkeep",
      "outputs": [
        {
          "internalType": "bool",
          "name": "upkeepNeeded",
          "type": "bool"
        },
        {
          "internalType": "bytes",
          "name": "",
          "type": "bytes"
        }
      ],
      "stateMutability": "view",
      "type": "function"
    },
    {
      "inputs": [],
      "name": "getTotalANCSpent",
      "outputs": [
        {
          "internalType": "uint256",
          "name": "",
          "type": "uint256"
        }
      ],
      "stateMutability": "view",
      "type": "function"
    },
    {
      "inputs": [
        {
          "internalType": "bytes32",
          "name": "fileHash",
          "type": "bytes32"
        }
      ],
      "name": "getTotalPaidForFile",
      "outputs": [
        {
          "internalType": "uint256",
          "name": "",
          "type": "uint256"
        }
      ],
      "stateMutability": "view",
      "type": "function"
    },
    {
      "inputs": [
        {
          "internalType": "address",
          "name": "user",
          "type": "address"
        },
        {
          "internalType": "bytes32",
          "name": "fileHash",
          "type": "bytes32"
        }
      ],
      "name": "getUserPaidForFile",
      "outputs": [
        {
          "internalType": "uint256",
          "name": "",
          "type": "uint256"
        }
      ],
      "stateMutability": "view",
      "type": "function"
    },
    {
      "inputs": [
        {
          "internalType": "address",
          "name": "_ancToken",
          "type": "address"
        }
      ],
      "name": "initialize",
      "outputs": [],
      "stateMutability": "nonpayable",
      "type": "function"
    },
    {
      "inputs": [],
      "name": "lastBurn",
      "outputs": [
        {
          "internalType": "uint256",
          "name": "",
          "type": "uint256"
        }
      ],
      "stateMutability": "view",
      "type": "function"
    },
    {
      "inputs": [],
      "name": "owner",
      "outputs": [
        {
          "internalType": "address",
          "name": "",
          "type": "address"
        }
      ],
      "stateMutability": "view",
      "type": "function"
    },
    {
      "inputs": [
        {
          "internalType": "bytes32",
          "name": "fileHash",
          "type": "bytes32"
        },
        {
          "internalType": "uint256",
          "name": "amount",
          "type": "uint256"
        },
        {
          "internalType": "string",
          "name": "purpose",
          "type": "string"
        }
      ],
      "name": "payForFileStorage",
      "outputs": [],
      "stateMutability": "nonpayable",
      "type": "function"
    },
    {
      "inputs": [
        {
          "internalType": "bytes",
          "name": "",
          "type": "bytes"
        }
      ],
      "name": "performUpkeep",
      "outputs": [],
      "stateMutability": "nonpayable",
      "type": "function"
    },
    {
      "inputs": [],
      "name": "proxiableUUID",
      "outputs": [
        {
          "internalType": "bytes32",
          "name": "",
          "type": "bytes32"
        }
      ],
      "stateMutability": "view",
      "type": "function"
    },
    {
      "inputs": [],
      "name": "renounceOwnership",
      "outputs": [],
      "stateMutability": "nonpayable",
      "type": "function"
    },
    {
      "inputs": [
        {
          "internalType": "uint256",
          "name": "_interval",
          "type": "uint256"
        },
        {
          "internalType": "uint256",
          "name": "_amount",
          "type": "uint256"
        }
      ],
      "name": "setAutoBurnParams",
      "outputs": [],
      "stateMutability": "nonpayable",
      "type": "function"
    },
    {
      "inputs": [],
      "name": "totalANCSpent",
      "outputs": [
        {
          "internalType": "uint256",
          "name": "",
          "type": "uint256"
        }
      ],
      "stateMutability": "view",
      "type": "function"
    },
    {
      "inputs": [
        {
          "internalType": "bytes32",
          "name": "",
          "type": "bytes32"
        }
      ],
      "name": "totalPaidANC",
      "outputs": [
        {
          "internalType": "uint256",
          "name": "",
          "type": "uint256"
        }
      ],
      "stateMutability": "view",
      "type": "function"
    },
    {
      "inputs": [
        {
          "internalType": "address",
          "name": "newOwner",
          "type": "address"
        }
      ],
      "name": "transferOwnership",
      "outputs": [],
      "stateMutability": "nonpayable",
      "type": "function"
    },
    {
      "inputs": [
        {
          "internalType": "address",
          "name": "newImplementation",
          "type": "address"
        }
      ],
      "name": "upgradeTo",
      "outputs": [],
      "stateMutability": "nonpayable",
      "type": "function"
    },
    {
      "inputs": [
        {
          "internalType": "address",
          "name": "newImplementation",
          "type": "address"
        },
        {
          "internalType": "bytes",
          "name": "data",
          "type": "bytes"
        }
      ],
      "name": "upgradeToAndCall",
      "outputs": [],
      "stateMutability": "payable",
      "type": "function"
    },
    {
      "inputs": [
        {
          "internalType": "address",
          "name": "",
          "type": "address"
        },
        {
          "internalType": "bytes32",
          "name": "",
          "type": "bytes32"
        }
      ],
      "name": "userPaidANC",
      "outputs": [
        {
          "internalType": "uint256",
          "name": "",
          "type": "uint256"
        }
      ],
      "stateMutability": "view",
      "type": "function"
    }
  ],
  "bytecode": "0x60a06040523073ffffffffffffffffffffffffffffffffffffffff1660809073ffffffffffffffffffffffffffffffffffffffff168152503480156200004457600080fd5b50620000556200005b60201b60201c565b62000205565b600060019054906101000a900460ff1615620000ae576040517f08c379a0000000000000000000000000000000000000000000000000000000008152600401620000a590620001a8565b60405180910390fd5b60ff801660008054906101000a900460ff1660ff16146200011f5760ff6000806101000a81548160ff021916908360ff1602179055507f7f26b83ff96e1f2b6a682f133852f6798a09c465da95921460cefb384740249860ff604051620001169190620001e8565b60405180910390a15b565b600082825260208201905092915050565b7f496e697469616c697a61626c653a20636f6e747261637420697320696e69746960008201527f616c697a696e6700000000000000000000000000000000000000000000000000602082015250565b60006200019060278362000121565b91506200019d8262000132565b604082019050919050565b60006020820190508181036000830152620001c38162000181565b9050919050565b600060ff82169050919050565b620001e281620001ca565b82525050565b6000602082019050620001ff6000830184620001d7565b92915050565b608051612bef6200023d600039600081816107f60152818161088401528181610b8d01528181610c1b0152610ccb0152612bef6000f3fe60806040526004361061012a5760003560e01c8063715018a6116100ab578063dfddc89b1161006f578063dfddc89b146103be578063e55a68b3146103fb578063ef07552214610426578063f17d8ac914610451578063f2fde38b1461047c578063fb361012146104a55761012a565b8063715018a6146102eb5780637f8b62dc146103025780638da5cb5b1461033f578063bbce2c171461036a578063c4d66de8146103955761012a565b8063486a7e6b116100f2578063486a7e6b146101fe5780634f1ef2861461022957806352d1902d14610245578063602ef43f146102705780636e04ff0d146102ad5761012a565b806303fcc9811461012f57806317b8228b146101585780632fd5afa1146101815780633659cfe6146101ac5780634585e33b146101d5575b600080fd5b34801561013b57600080fd5b50610156600480360381019061015191906119fd565b6104e2565b005b34801561016457600080fd5b5061017f600480360381019061017a9190611a71565b61074a565b005b34801561018d57600080fd5b506101966107ea565b6040516101a39190611ac0565b60405180910390f35b3480156101b857600080fd5b506101d360048036038101906101ce9190611b39565b6107f4565b005b3480156101e157600080fd5b506101fc60048036038101906101f79190611bbc565b61097c565b005b34801561020a57600080fd5b50610213610b85565b6040516102209190611ac0565b60405180910390f35b610243600480360381019061023e9190611d4a565b610b8b565b005b34801561025157600080fd5b5061025a610cc7565b6040516102679190611db5565b60405180910390f35b34801561027c57600080fd5b5061029760048036038101906102929190611dd0565b610d80565b6040516102a49190611ac0565b60405180910390f35b3480156102b957600080fd5b506102d460048036038101906102cf9190611bbc565b610d98565b6040516102e2929190611e97565b60405180910390f35b3480156102f757600080fd5b50610300610e61565b005b34801561030e57600080fd5b5061032960048036038101906103249190611dd0565b610e75565b6040516103369190611ac0565b60405180910390f35b34801561034b57600080fd5b50610354610e92565b6040516103619190611ed6565b60405180910390f35b34801561037657600080fd5b5061037f610ebc565b60405161038c9190611ac0565b60405180910390f35b3480156103a157600080fd5b506103bc60048036038101906103b79190611b39565b610ec2565b005b3480156103ca57600080fd5b506103e560048036038101906103e09190611ef1565b6110d9565b6040516103f29190611ac0565b60405180910390f35b34801561040757600080fd5b506104106110fe565b60405161041d9190611ac0565b60405180910390f35b34801561043257600080fd5b5061043b611104565b6040516104489190611f90565b60405180910390f35b34801561045d57600080fd5b5061046661112a565b6040516104739190611ac0565b60405180910390f35b34801561048857600080fd5b506104a3600480360381019061049e9190611b39565b611130565b005b3480156104b157600080fd5b506104cc60048036038101906104c79190611ef1565b6111b3565b6040516104d99190611ac0565b60405180910390f35b60008311610525576040517f08c379a000000000000000000000000000000000000000000000000000000000815260040161051c90612008565b60405180910390fd5b6000801b840361056a576040517f08c379a000000000000000000000000000000000000000000000000000000000815260040161056190612074565b60405180910390fd5b60c960009054906101000a900473ffffffffffffffffffffffffffffffffffffffff1673ffffffffffffffffffffffffffffffffffffffff166379cc679033856040518363ffffffff1660e01b81526004016105c7929190612094565b600060405180830381600087803b1580156105e157600080fd5b505af11580156105f5573d6000803e3d6000fd5b505050508260ca6000868152602001908152602001600020600082825461061c91906120ec565b925050819055508260cb60003373ffffffffffffffffffffffffffffffffffffffff1673ffffffffffffffffffffffffffffffffffffffff1681526020019081526020016000206000868152602001908152602001600020600082825461068391906120ec565b925050819055508260cc600082825461069c91906120ec565b92505081905550833373ffffffffffffffffffffffffffffffffffffffff167fa942627b32793380c31fa51ec070fa2b3f7a7650ca75e4051740d2db9bf630bb856040516106ea9190611ac0565b60405180910390a33373ffffffffffffffffffffffffffffffffffffffff167f7ade235b0c4e063e84b0e8a7c99f60adc60a760bbfc7095e290310387f94709a84848460405161073c9392919061214d565b60405180910390a250505050565b61075261120e565b60008211610795576040517f08c379a000000000000000000000000000000000000000000000000000000000815260040161078c906121cb565b60405180910390fd5b600081116107d8576040517f08c379a00000000000000000000000000000000000000000000000000000000081526004016107cf90612237565b60405180910390fd5b8160ce819055508060cf819055505050565b600060cc54905090565b7f000000000000000000000000000000000000000000000000000000000000000073ffffffffffffffffffffffffffffffffffffffff163073ffffffffffffffffffffffffffffffffffffffff1603610882576040517f08c379a0000000000000000000000000000000000000000000000000000000008152600401610879906122c9565b60405180910390fd5b7f000000000000000000000000000000000000000000000000000000000000000073ffffffffffffffffffffffffffffffffffffffff166108c161128c565b73ffffffffffffffffffffffffffffffffffffffff1614610917576040517f08c379a000000000000000000000000000000000000000000000000000000000815260040161090e9061235b565b60405180910390fd5b610920816112e3565b61097981600067ffffffffffffffff81111561093f5761093e611c1f565b5b6040519080825280601f01601f1916602001820160405280156109715781602001600182028036833780820191505090505b5060006112ee565b50565b60ce5460cd544261098d919061237b565b10156109ce576040517f08c379a00000000000000000000000000000000000000000000000000000000081526004016109c5906123fb565b60405180910390fd5b60cf5460c960009054906101000a900473ffffffffffffffffffffffffffffffffffffffff1673ffffffffffffffffffffffffffffffffffffffff166370a08231306040518263ffffffff1660e01b8152600401610a2c9190611ed6565b602060405180830381865afa158015610a49573d6000803e3d6000fd5b505050506040513d601f19601f82011682018060405250810190610a6d9190612430565b1015610aae576040517f08c379a0000000000000000000000000000000000000000000000000000000008152600401610aa5906124a9565b60405180910390fd5b60c960009054906101000a900473ffffffffffffffffffffffffffffffffffffffff1673ffffffffffffffffffffffffffffffffffffffff166342966c6860cf546040518263ffffffff1660e01b8152600401610b0b9190611ac0565b600060405180830381600087803b158015610b2557600080fd5b505af1158015610b39573d6000803e3d6000fd5b505050504260cd819055507f1367a80f8266c25ef54f82fcc1e4a8eb1c658801b98e56646cb0da2a7398ac2260cf5460cd54604051610b799291906124c9565b60405180910390a15050565b60cf5481565b7f000000000000000000000000000000000000000000000000000000000000000073ffffffffffffffffffffffffffffffffffffffff163073ffffffffffffffffffffffffffffffffffffffff1603610c19576040517f08c379a0000000000000000000000000000000000000000000000000000000008152600401610c10906122c9565b60405180910390fd5b7f000000000000000000000000000000000000000000000000000000000000000073ffffffffffffffffffffffffffffffffffffffff16610c5861128c565b73ffffffffffffffffffffffffffffffffffffffff1614610cae576040517f08c379a0000000000000000000000000000000000000000000000000000000008152600401610ca59061235b565b60405180910390fd5b610cb7826112e3565b610cc3828260016112ee565b5050565b60007f000000000000000000000000000000000000000000000000000000000000000073ffffffffffffffffffffffffffffffffffffffff163073ffffffffffffffffffffffffffffffffffffffff1614610d57576040517f08c379a0000000000000000000000000000000000000000000000000000000008152600401610d4e90612564565b60405180910390fd5b7f360894a13ba1a3210667c828492db98dca3e2076cc3735a920a3ca505d382bbc60001b905090565b60ca6020528060005260406000206000915090505481565b6000606060ce5460cd5442610dad919061237b565b10158015610e58575060cf5460c960009054906101000a900473ffffffffffffffffffffffffffffffffffffffff1673ffffffffffffffffffffffffffffffffffffffff166370a08231306040518263ffffffff1660e01b8152600401610e149190611ed6565b602060405180830381865afa158015610e31573d6000803e3d6000fd5b505050506040513d601f19601f82011682018060405250810190610e559190612430565b10155b91509250929050565b610e6961120e565b610e73600061145c565b565b600060ca6000838152602001908152602001600020549050919050565b6000603360009054906101000a900473ffffffffffffffffffffffffffffffffffffffff16905090565b60cd5481565b60008060019054906101000a900460ff16159050808015610ef35750600160008054906101000a900460ff1660ff16105b80610f205750610f0230611522565b158015610f1f5750600160008054906101000a900460ff1660ff16145b5b610f5f576040517f08c379a0000000000000000000000000000000000000000000000000000000008152600401610f56906125f6565b60405180910390fd5b60016000806101000a81548160ff021916908360ff1602179055508015610f9c576001600060016101000a81548160ff0219169083151502179055505b600073ffffffffffffffffffffffffffffffffffffffff168273ffffffffffffffffffffffffffffffffffffffff160361100b576040517f08c379a000000000000000000000000000000000000000000000000000000000815260040161100290612662565b60405180910390fd5b611013611545565b61101b61159e565b8160c960006101000a81548173ffffffffffffffffffffffffffffffffffffffff021916908373ffffffffffffffffffffffffffffffffffffffff16021790555062093a8060ce81905550678ac7230489e8000060cf819055504260cd8190555080156110d55760008060016101000a81548160ff0219169083151502179055507f7f26b83ff96e1f2b6a682f133852f6798a09c465da95921460cefb384740249860016040516110cc91906126ca565b60405180910390a15b5050565b60cb602052816000526040600020602052806000526040600020600091509150505481565b60ce5481565b60c960009054906101000a900473ffffffffffffffffffffffffffffffffffffffff1681565b60cc5481565b61113861120e565b600073ffffffffffffffffffffffffffffffffffffffff168173ffffffffffffffffffffffffffffffffffffffff16036111a7576040517f08c379a000000000000000000000000000000000000000000000000000000000815260040161119e90612757565b60405180910390fd5b6111b08161145c565b50565b600060cb60008473ffffffffffffffffffffffffffffffffffffffff1673ffffffffffffffffffffffffffffffffffffffff168152602001908152602001600020600083815260200190815260200160002054905092915050565b6112166115ef565b73ffffffffffffffffffffffffffffffffffffffff16611234610e92565b73ffffffffffffffffffffffffffffffffffffffff161461128a576040517f08c379a0000000000000000000000000000000000000000000000000000000008152600401611281906127c3565b60405180910390fd5b565b60006112ba7f360894a13ba1a3210667c828492db98dca3e2076cc3735a920a3ca505d382bbc60001b6115f7565b60000160009054906101000a900473ffffffffffffffffffffffffffffffffffffffff16905090565b6112eb61120e565b50565b61131a7f4910fdfa16fed3260ed0e7147f7cc6da11a60208b5b9406d12a635614ffd914360001b611601565b60000160009054906101000a900460ff161561133e576113398361160b565b611457565b8273ffffffffffffffffffffffffffffffffffffffff166352d1902d6040518163ffffffff1660e01b8152600401602060405180830381865afa9250505080156113a657506040513d601f19601f820116820180604052508101906113a391906127f8565b60015b6113e5576040517f08c379a00000000000000000000000000000000000000000000000000000000081526004016113dc90612897565b60405180910390fd5b7f360894a13ba1a3210667c828492db98dca3e2076cc3735a920a3ca505d382bbc60001b811461144a576040517f08c379a000000000000000000000000000000000000000000000000000000000815260040161144190612929565b60405180910390fd5b506114568383836116c4565b5b505050565b6000603360009054906101000a900473ffffffffffffffffffffffffffffffffffffffff16905081603360006101000a81548173ffffffffffffffffffffffffffffffffffffffff021916908373ffffffffffffffffffffffffffffffffffffffff1602179055508173ffffffffffffffffffffffffffffffffffffffff168173ffffffffffffffffffffffffffffffffffffffff167f8be0079c531659141344cd1fd0a4f28419497f9722a3daafe3b4186f6b6457e060405160405180910390a35050565b6000808273ffffffffffffffffffffffffffffffffffffffff163b119050919050565b600060019054906101000a900460ff16611594576040517f08c379a000000000000000000000000000000000000000000000000000000000815260040161158b906129bb565b60405180910390fd5b61159c6116f0565b565b600060019054906101000a900460ff166115ed576040517f08c379a00000000000000000000000000000000000000000000000000000000081526004016115e4906129bb565b60405180910390fd5b565b600033905090565b6000819050919050565b6000819050919050565b61161481611522565b611653576040517f08c379a000000000000000000000000000000000000000000000000000000000815260040161164a90612a4d565b60405180910390fd5b806116807f360894a13ba1a3210667c828492db98dca3e2076cc3735a920a3ca505d382bbc60001b6115f7565b60000160006101000a81548173ffffffffffffffffffffffffffffffffffffffff021916908373ffffffffffffffffffffffffffffffffffffffff16021790555050565b6116cd83611751565b6000825111806116da5750805b156116eb576116e983836117a0565b505b505050565b600060019054906101000a900460ff1661173f576040517f08c379a0000000000000000000000000000000000000000000000000000000008152600401611736906129bb565b60405180910390fd5b61174f61174a6115ef565b61145c565b565b61175a8161160b565b8073ffffffffffffffffffffffffffffffffffffffff167fbc7cd75a20ee27fd9adebab32041f755214dbc6bffa90cc0225b39da2e5c2d3b60405160405180910390a250565b60606117c58383604051806060016040528060278152602001612b93602791396117cd565b905092915050565b60606000808573ffffffffffffffffffffffffffffffffffffffff16856040516117f79190612aa9565b600060405180830381855af49150503d8060008114611832576040519150601f19603f3d011682016040523d82523d6000602084013e611837565b606091505b509150915061184886838387611853565b925050509392505050565b606083156118b55760008351036118ad5761186d85611522565b6118ac576040517f08c379a00000000000000000000000000000000000000000000000000000000081526004016118a390612b0c565b60405180910390fd5b5b8290506118c0565b6118bf83836118c8565b5b949350505050565b6000825111156118db5781518083602001fd5b806040517f08c379a000000000000000000000000000000000000000000000000000000000815260040161190f9190612b70565b60405180910390fd5b6000604051905090565b600080fd5b600080fd5b6000819050919050565b61193f8161192c565b811461194a57600080fd5b50565b60008135905061195c81611936565b92915050565b6000819050919050565b61197581611962565b811461198057600080fd5b50565b6000813590506119928161196c565b92915050565b600080fd5b600080fd5b600080fd5b60008083601f8401126119bd576119bc611998565b5b8235905067ffffffffffffffff8111156119da576119d961199d565b5b6020830191508360018202830111156119f6576119f56119a2565b5b9250929050565b60008060008060608587031215611a1757611a16611922565b5b6000611a258782880161194d565b9450506020611a3687828801611983565b935050604085013567ffffffffffffffff811115611a5757611a56611927565b5b611a63878288016119a7565b925092505092959194509250565b60008060408385031215611a8857611a87611922565b5b6000611a9685828601611983565b9250506020611aa785828601611983565b9150509250929050565b611aba81611962565b82525050565b6000602082019050611ad56000830184611ab1565b92915050565b600073ffffffffffffffffffffffffffffffffffffffff82169050919050565b6000611b0682611adb565b9050919050565b611b1681611afb565b8114611b2157600080fd5b50565b600081359050611b3381611b0d565b92915050565b600060208284031215611b4f57611b4e611922565b5b6000611b5d84828501611b24565b91505092915050565b60008083601f840112611b7c57611b7b611998565b5b8235905067ffffffffffffffff811115611b9957611b9861199d565b5b602083019150836001820283011115611bb557611bb46119a2565b5b9250929050565b60008060208385031215611bd357611bd2611922565b5b600083013567ffffffffffffffff811115611bf157611bf0611927565b5b611bfd85828601611b66565b92509250509250929050565b600080fd5b6000601f19601f8301169050919050565b7f4e487b7100000000000000000000000000000000000000000000000000000000600052604160045260246000fd5b611c5782611c0e565b810181811067ffffffffffffffff82111715611c7657611c75611c1f565b5b80604052505050565b6000611c89611918565b9050611c958282611c4e565b919050565b600067ffffffffffffffff821115611cb557611cb4611c1f565b5b611cbe82611c0e565b9050602081019050919050565b82818337600083830152505050565b6000611ced611ce884611c9a565b611c7f565b905082815260208101848484011115611d0957611d08611c09565b5b611d14848285611ccb565b509392505050565b600082601f830112611d3157611d30611998565b5b8135611d41848260208601611cda565b91505092915050565b60008060408385031215611d6157611d60611922565b5b6000611d6f85828601611b24565b925050602083013567ffffffffffffffff811115611d9057611d8f611927565b5b611d9c85828601611d1c565b9150509250929050565b611daf8161192c565b82525050565b6000602082019050611dca6000830184611da6565b92915050565b600060208284031215611de657611de5611922565b5b6000611df48482850161194d565b91505092915050565b60008115159050919050565b611e1281611dfd565b82525050565b600081519050919050565b600082825260208201905092915050565b60005b83811015611e52578082015181840152602081019050611e37565b60008484015250505050565b6000611e6982611e18565b611e738185611e23565b9350611e83818560208601611e34565b611e8c81611c0e565b840191505092915050565b6000604082019050611eac6000830185611e09565b8181036020830152611ebe8184611e5e565b90509392505050565b611ed081611afb565b82525050565b6000602082019050611eeb6000830184611ec7565b92915050565b60008060408385031215611f0857611f07611922565b5b6000611f1685828601611b24565b9250506020611f278582860161194d565b9150509250929050565b6000819050919050565b6000611f56611f51611f4c84611adb565b611f31565b611adb565b9050919050565b6000611f6882611f3b565b9050919050565b6000611f7a82611f5d565b9050919050565b611f8a81611f6f565b82525050565b6000602082019050611fa56000830184611f81565b92915050565b600082825260208201905092915050565b7f5a65726f20616d6f756e74000000000000000000000000000000000000000000600082015250565b6000611ff2600b83611fab565b9150611ffd82611fbc565b602082019050919050565b6000602082019050818103600083015261202181611fe5565b9050919050565b7f496e76616c69642066696c654861736800000000000000000000000000000000600082015250565b600061205e601083611fab565b915061206982612028565b602082019050919050565b6000602082019050818103600083015261208d81612051565b9050919050565b60006040820190506120a96000830185611ec7565b6120b66020830184611ab1565b9392505050565b7f4e487b7100000000000000000000000000000000000000000000000000000000600052601160045260246000fd5b60006120f782611962565b915061210283611962565b925082820190508082111561211a576121196120bd565b5b92915050565b600061212c8385611fab565b9350612139838584611ccb565b61214283611c0e565b840190509392505050565b60006040820190506121626000830186611ab1565b8181036020830152612175818486612120565b9050949350505050565b7f496e74657276616c206d757374206265203e2030000000000000000000000000600082015250565b60006121b5601483611fab565b91506121c08261217f565b602082019050919050565b600060208201905081810360008301526121e4816121a8565b9050919050565b7f416d6f756e74206d757374206265203e20300000000000000000000000000000600082015250565b6000612221601283611fab565b915061222c826121eb565b602082019050919050565b6000602082019050818103600083015261225081612214565b9050919050565b7f46756e6374696f6e206d7573742062652063616c6c6564207468726f7567682060008201527f64656c656761746563616c6c0000000000000000000000000000000000000000602082015250565b60006122b3602c83611fab565b91506122be82612257565b604082019050919050565b600060208201905081810360008301526122e2816122a6565b9050919050565b7f46756e6374696f6e206d7573742062652063616c6c6564207468726f7567682060008201527f6163746976652070726f78790000000000000000000000000000000000000000602082015250565b6000612345602c83611fab565b9150612350826122e9565b604082019050919050565b6000602082019050818103600083015261237481612338565b9050919050565b600061238682611962565b915061239183611962565b92508282039050818111156123a9576123a86120bd565b5b92915050565b7f4275726e20696e74657276616c206e6f74207265616368656400000000000000600082015250565b60006123e5601983611fab565b91506123f0826123af565b602082019050919050565b60006020820190508181036000830152612414816123d8565b9050919050565b60008151905061242a8161196c565b92915050565b60006020828403121561244657612445611922565b5b60006124548482850161241b565b91505092915050565b7f4e6f7420656e6f75676820414e4320746f206275726e00000000000000000000600082015250565b6000612493601683611fab565b915061249e8261245d565b602082019050919050565b600060208201905081810360008301526124c281612486565b9050919050565b60006040820190506124de6000830185611ab1565b6124eb6020830184611ab1565b9392505050565b7f555550535570677261646561626c653a206d757374206e6f742062652063616c60008201527f6c6564207468726f7567682064656c656761746563616c6c0000000000000000602082015250565b600061254e603883611fab565b9150612559826124f2565b604082019050919050565b6000602082019050818103600083015261257d81612541565b9050919050565b7f496e697469616c697a61626c653a20636f6e747261637420697320616c72656160008201527f647920696e697469616c697a6564000000000000000000000000000000000000602082015250565b60006125e0602e83611fab565b91506125eb82612584565b604082019050919050565b6000602082019050818103600083015261260f816125d3565b9050919050565b7f414e4320746f6b656e2072657175697265640000000000000000000000000000600082015250565b600061264c601283611fab565b915061265782612616565b602082019050919050565b6000602082019050818103600083015261267b8161263f565b9050919050565b6000819050919050565b600060ff82169050919050565b60006126b46126af6126aa84612682565b611f31565b61268c565b9050919050565b6126c481612699565b82525050565b60006020820190506126df60008301846126bb565b92915050565b7f4f776e61626c653a206e6577206f776e657220697320746865207a65726f206160008201527f6464726573730000000000000000000000000000000000000000000000000000602082015250565b6000612741602683611fab565b915061274c826126e5565b604082019050919050565b6000602082019050818103600083015261277081612734565b9050919050565b7f4f776e61626c653a2063616c6c6572206973206e6f7420746865206f776e6572600082015250565b60006127ad602083611fab565b91506127b882612777565b602082019050919050565b600060208201905081810360008301526127dc816127a0565b9050919050565b6000815190506127f281611936565b92915050565b60006020828403121561280e5761280d611922565b5b600061281c848285016127e3565b91505092915050565b7f45524331393637557067726164653a206e657720696d706c656d656e7461746960008201527f6f6e206973206e6f742055555053000000000000000000000000000000000000602082015250565b6000612881602e83611fab565b915061288c82612825565b604082019050919050565b600060208201905081810360008301526128b081612874565b9050919050565b7f45524331393637557067726164653a20756e737570706f727465642070726f7860008201527f6961626c65555549440000000000000000000000000000000000000000000000602082015250565b6000612913602983611fab565b915061291e826128b7565b604082019050919050565b6000602082019050818103600083015261294281612906565b9050919050565b7f496e697469616c697a61626c653a20636f6e7472616374206973206e6f74206960008201527f6e697469616c697a696e67000000000000000000000000000000000000000000602082015250565b60006129a5602b83611fab565b91506129b082612949565b604082019050919050565b600060208201905081810360008301526129d481612998565b9050919050565b7f455243313936373a206e657720696d706c656d656e746174696f6e206973206e60008201527f6f74206120636f6e747261637400000000000000000000000000000000000000602082015250565b6000612a37602d83611fab565b9150612a42826129db565b604082019050919050565b60006020820190508181036000830152612a6681612a2a565b9050919050565b600081905092915050565b6000612a8382611e18565b612a8d8185612a6d565b9350612a9d818560208601611e34565b80840191505092915050565b6000612ab58284612a78565b915081905092915050565b7f416464726573733a2063616c6c20746f206e6f6e2d636f6e7472616374000000600082015250565b6000612af6601d83611fab565b9150612b0182612ac0565b602082019050919050565b60006020820190508181036000830152612b2581612ae9565b9050919050565b600081519050919050565b6000612b4282612b2c565b612b4c8185611fab565b9350612b5c818560208601611e34565b612b6581611c0e565b840191505092915050565b60006020820190508181036000830152612b8a8184612b37565b90509291505056fe416464726573733a206c6f772d6c6576656c2064656c65676174652063616c6c206661696c6564a264697066735822122013949ed34ebb24614152b5ae370b2e9ffd60b79f53f71e023837b33d723c758c64736f6c63430008140033",
  "linkReferences": {},
  "deployedLinkReferences": {}
}