{
  "_format": "hh-sol-artifact-1",
  "contractName": "TreasuryRouter",
  "sourceName": "contracts/TreasuryRouter.sol",
  "abi": [
    {
      "inputs": [
        {
          "internalType": "address",
          "name": "_anc",
          "type": "address"
        },
        {
          "internalType": "address",
          "name": "_ar",
          "type": "address"
        },
        {
          "internalType": "address",
          "name": "_link",
          "type": "address"
        },
        {
          "internalType": "address",
          "name": "_ancUsdFeed",
          "type": "address"
        },
        {
          "internalType": "address",
          "name": "_arUsdFeed",
          "type": "address"
        },
        {
          "internalType": "address",
          "name": "_linkUsdFeed",
          "type": "address"
        }
      ],
      "stateMutability": "nonpayable",
      "type": "constructor"
    },
    {
      "anonymous": false,
      "inputs": [
        {
          "indexed": true,
          "internalType": "address",
          "name": "user",
          "type": "address"
        },
        {
          "indexed": false,
          "internalType": "uint256",
          "name": "gibBought",
          "type": "uint256"
        },
        {
          "indexed": false,
          "internalType": "uint256",
          "name": "ancSpent",
          "type": "uint256"
        },
        {
          "indexed": false,
          "internalType": "uint256",
          "name": "arAllocated",
          "type": "uint256"
        },
        {
          "indexed": false,
          "internalType": "uint256",
          "name": "linkAllocated",
          "type": "uint256"
        }
      ],
      "name": "StoragePurchased",
      "type": "event"
    },
    {
      "inputs": [],
      "name": "AR_PER_GB",
      "outputs": [
        {
          "internalType": "uint256",
          "name": "",
          "type": "uint256"
        }
      ],
      "stateMutability": "view",
      "type": "function"
    },
    {
      "inputs": [],
      "name": "LINK_PER_CALL",
      "outputs": [
        {
          "internalType": "uint256",
          "name": "",
          "type": "uint256"
        }
      ],
      "stateMutability": "view",
      "type": "function"
    },
    {
      "inputs": [],
      "name": "anc",
      "outputs": [
        {
          "internalType": "contract IERC20",
          "name": "",
          "type": "address"
        }
      ],
      "stateMutability": "view",
      "type": "function"
    },
    {
      "inputs": [],
      "name": "ancUsdFeed",
      "outputs": [
        {
          "internalType": "contract AggregatorV3Interface",
          "name": "",
          "type": "address"
        }
      ],
      "stateMutability": "view",
      "type": "function"
    },
    {
      "inputs": [],
      "name": "ar",
      "outputs": [
        {
          "internalType": "contract IERC20",
          "name": "",
          "type": "address"
        }
      ],
      "stateMutability": "view",
      "type": "function"
    },
    {
      "inputs": [],
      "name": "arUsdFeed",
      "outputs": [
        {
          "internalType": "contract AggregatorV3Interface",
          "name": "",
          "type": "address"
        }
      ],
      "stateMutability": "view",
      "type": "function"
    },
    {
      "inputs": [],
      "name": "link",
      "outputs": [
        {
          "internalType": "contract IERC20",
          "name": "",
          "type": "address"
        }
      ],
      "stateMutability": "view",
      "type": "function"
    },
    {
      "inputs": [],
      "name": "linkUsdFeed",
      "outputs": [
        {
          "internalType": "contract AggregatorV3Interface",
          "name": "",
          "type": "address"
        }
      ],
      "stateMutability": "view",
      "type": "function"
    },
    {
      "inputs": [
        {
          "internalType": "uint256",
          "name": "gib",
          "type": "uint256"
        },
        {
          "internalType": "uint256",
          "name": "apiCalls",
          "type": "uint256"
        }
      ],
      "name": "purchaseStorage",
      "outputs": [],
      "stateMutability": "nonpayable",
      "type": "function"
    }
  ],
  "bytecode": "0x6101406040523480156200001257600080fd5b5060405162000f0038038062000f008339818101604052810190620000389190620001e8565b8573ffffffffffffffffffffffffffffffffffffffff1660808173ffffffffffffffffffffffffffffffffffffffff16815250508473ffffffffffffffffffffffffffffffffffffffff1660a08173ffffffffffffffffffffffffffffffffffffffff16815250508373ffffffffffffffffffffffffffffffffffffffff1660c08173ffffffffffffffffffffffffffffffffffffffff16815250508273ffffffffffffffffffffffffffffffffffffffff1660e08173ffffffffffffffffffffffffffffffffffffffff16815250508173ffffffffffffffffffffffffffffffffffffffff166101008173ffffffffffffffffffffffffffffffffffffffff16815250508073ffffffffffffffffffffffffffffffffffffffff166101208173ffffffffffffffffffffffffffffffffffffffff168152505050505050505062000284565b600080fd5b600073ffffffffffffffffffffffffffffffffffffffff82169050919050565b6000620001b08262000183565b9050919050565b620001c281620001a3565b8114620001ce57600080fd5b50565b600081519050620001e281620001b7565b92915050565b60008060008060008060c087890312156200020857620002076200017e565b5b60006200021889828a01620001d1565b96505060206200022b89828a01620001d1565b95505060406200023e89828a01620001d1565b94505060606200025189828a01620001d1565b93505060806200026489828a01620001d1565b92505060a06200027789828a01620001d1565b9150509295509295509295565b60805160a05160c05160e0516101005161012051610c10620002f06000396000818161027601526104b7015260008181610249015261051501526000818161021c01526104db0152600061044b0152600061046f01526000818161030b01526104930152610c106000f3fe608060405234801561001057600080fd5b50600436106100935760003560e01c806393e33c781161006657806393e33c781461010e578063ad2920591461012c578063b907dbf21461014a578063f438d81b14610168578063f6c692b91461018657610093565b8063135c6e8f146100985780631c4695f4146100b4578063488a0835146100d257806388c53a59146100f0575b600080fd5b6100b260048036038101906100ad9190610636565b6101a4565b005b6100bc610449565b6040516100c991906106f5565b60405180910390f35b6100da61046d565b6040516100e791906106f5565b60405180910390f35b6100f8610491565b60405161010591906106f5565b60405180910390f35b6101166104b5565b6040516101239190610731565b60405180910390f35b6101346104d9565b6040516101419190610731565b60405180910390f35b6101526104fd565b60405161015f919061075b565b60405180910390f35b610170610507565b60405161017d919061075b565b60405180910390f35b61018e610513565b60405161019b9190610731565b60405180910390f35b600082116101e7576040517f08c379a00000000000000000000000000000000000000000000000000000000081526004016101de906107d3565b60405180910390fd5b6000670354a6ba7a180000836101fd9190610822565b90506000655af3107a4000836102139190610822565b905060006102407f0000000000000000000000000000000000000000000000000000000000000000610537565b9050600061026d7f0000000000000000000000000000000000000000000000000000000000000000610537565b9050600061029a7f0000000000000000000000000000000000000000000000000000000000000000610537565b905060006305f5e10083876102af9190610822565b6102b99190610893565b905060006305f5e10083876102ce9190610822565b6102d89190610893565b9050600081836102e891906108c4565b90506000866305f5e100836102fd9190610822565b6103079190610893565b90507f000000000000000000000000000000000000000000000000000000000000000073ffffffffffffffffffffffffffffffffffffffff166323b872dd3330846040518463ffffffff1660e01b815260040161036693929190610919565b6020604051808303816000875af1158015610385573d6000803e3d6000fd5b505050506040513d601f19601f820116820180604052508101906103a99190610988565b6103e8576040517f08c379a00000000000000000000000000000000000000000000000000000000081526004016103df90610a01565b60405180910390fd5b3373ffffffffffffffffffffffffffffffffffffffff167f21680c06255e0143f46cf1a66fcf3a2c5a2270f6838f02278a1215fe6cdf4b588c838c8c6040516104349493929190610a21565b60405180910390a25050505050505050505050565b7f000000000000000000000000000000000000000000000000000000000000000081565b7f000000000000000000000000000000000000000000000000000000000000000081565b7f000000000000000000000000000000000000000000000000000000000000000081565b7f000000000000000000000000000000000000000000000000000000000000000081565b7f000000000000000000000000000000000000000000000000000000000000000081565b655af3107a400081565b670354a6ba7a18000081565b7f000000000000000000000000000000000000000000000000000000000000000081565b6000808273ffffffffffffffffffffffffffffffffffffffff1663feaf968c6040518163ffffffff1660e01b815260040160a060405180830381865afa158015610585573d6000803e3d6000fd5b505050506040513d601f19601f820116820180604052508101906105a99190610af3565b505050915050600081136105f2576040517f08c379a00000000000000000000000000000000000000000000000000000000081526004016105e990610bba565b60405180910390fd5b80915050919050565b600080fd5b6000819050919050565b61061381610600565b811461061e57600080fd5b50565b6000813590506106308161060a565b92915050565b6000806040838503121561064d5761064c6105fb565b5b600061065b85828601610621565b925050602061066c85828601610621565b9150509250929050565b600073ffffffffffffffffffffffffffffffffffffffff82169050919050565b6000819050919050565b60006106bb6106b66106b184610676565b610696565b610676565b9050919050565b60006106cd826106a0565b9050919050565b60006106df826106c2565b9050919050565b6106ef816106d4565b82525050565b600060208201905061070a60008301846106e6565b92915050565b600061071b826106c2565b9050919050565b61072b81610710565b82525050565b60006020820190506107466000830184610722565b92915050565b61075581610600565b82525050565b6000602082019050610770600083018461074c565b92915050565b600082825260208201905092915050565b7f6769623d30000000000000000000000000000000000000000000000000000000600082015250565b60006107bd600583610776565b91506107c882610787565b602082019050919050565b600060208201905081810360008301526107ec816107b0565b9050919050565b7f4e487b7100000000000000000000000000000000000000000000000000000000600052601160045260246000fd5b600061082d82610600565b915061083883610600565b925082820261084681610600565b9150828204841483151761085d5761085c6107f3565b5b5092915050565b7f4e487b7100000000000000000000000000000000000000000000000000000000600052601260045260246000fd5b600061089e82610600565b91506108a983610600565b9250826108b9576108b8610864565b5b828204905092915050565b60006108cf82610600565b91506108da83610600565b92508282019050808211156108f2576108f16107f3565b5b92915050565b600061090382610676565b9050919050565b610913816108f8565b82525050565b600060608201905061092e600083018661090a565b61093b602083018561090a565b610948604083018461074c565b949350505050565b60008115159050919050565b61096581610950565b811461097057600080fd5b50565b6000815190506109828161095c565b92915050565b60006020828403121561099e5761099d6105fb565b5b60006109ac84828501610973565b91505092915050565b7f414e43207472616e73666572206661696c656400000000000000000000000000600082015250565b60006109eb601383610776565b91506109f6826109b5565b602082019050919050565b60006020820190508181036000830152610a1a816109de565b9050919050565b6000608082019050610a36600083018761074c565b610a43602083018661074c565b610a50604083018561074c565b610a5d606083018461074c565b95945050505050565b600069ffffffffffffffffffff82169050919050565b610a8581610a66565b8114610a9057600080fd5b50565b600081519050610aa281610a7c565b92915050565b6000819050919050565b610abb81610aa8565b8114610ac657600080fd5b50565b600081519050610ad881610ab2565b92915050565b600081519050610aed8161060a565b92915050565b600080600080600060a08688031215610b0f57610b0e6105fb565b5b6000610b1d88828901610a93565b9550506020610b2e88828901610ac9565b9450506040610b3f88828901610ade565b9350506060610b5088828901610ade565b9250506080610b6188828901610a93565b9150509295509295909350565b7f6261642070726963650000000000000000000000000000000000000000000000600082015250565b6000610ba4600983610776565b9150610baf82610b6e565b602082019050919050565b60006020820190508181036000830152610bd381610b97565b905091905056fea2646970667358221220e3c0043c3acdba586bc44cb6af8f0bc0b28e3abe8dad2d3554ef163775d399ee64736f6c63430008140033",
  "linkReferences": {},
  "deployedLinkReferences": {}
}